:02000004900466
:1000000000000220110A04900D0A04907D730490F0
:100010000D0A04900D0A04900D0A049000000000DF
:100020000000000000000000000000000D0A049025
:100030000D0A0490000000000D0A04900173049062
:100040000D0A04900D0A04900D0A04900D0A049004
:100050000D0A04900D0A04900D0A04900D0A0490F4
:100060000D0A04900D0A04900D0A0490096F049083
:10007000156F04900D0A0490216F04902D6F049069
:100080003D080590396404900D0A04900D0A04900F
:100090000D0A04900D0A04900D0A04900D0A0490B4
:1000A0000D0A04900D0A04900D0A04900D0A0490A4
:1000B00069FC049075FC049081FC04906D640490CC
:1000C0000D0A0490796404900D0A0490D9F4049008
:1000D000E5F40490710605909D060590D106059003
:1000E0000D0A04900D0A0490000000000D0A04900F
:1000F0000D0A04900D0A04900D0A04900D0A049054
:100100000D0A04900D0A04908DFC0490F1F4049003
:1001100005070590390705900D0A04900D0A049013
:100120000D0A04900D0A049015F5049049F5049009
:10013000710805900D0A04900D0A04900D0A0490B0
:1001400000000000000000000000000000000000AF
:100150000D0A04900D0A04900D0A04906D07059095
:10016000856404900D0A0490117304903573049013
:100170000D0A0490597304900D0A04900D0A04901E
:100180000D0A04900D0A0490A1070590D50705906B
:10019000FDF4049009F504900D0A04900D0A0490F2
:1001A0000D0A04900D0A04900D0A04900D0A0490A3
:1001B000296C04900D0A04900D0A04900D0A049015
:1001C0000D0A04900D0A04900D0A04900D0A049083
:1001D0000D0A04900D0A04900D0A04900D0A049073
:1001E0000D0A04900D0A04900D0A04900D0A049063
:1001F0000D0A04900D0A04900D0A04900D0A049053
:100200000D0A04900D0A04900D0A04900D0A049042
:100210000D0A04900D0A04900D0A04900D0A049032
:100220000D0A04900D0A04900D0A049000000000CD
:100230000D0A04900D0A0490000000000D0A0490BD
:100240000D0A04900D0A04900D0A04900D0A049002
:100250000D0A04900D0A04900D0A04900D0A0490F2
:100260000D0A04900D0A04900D0A04900D0A0490E2
:100270000D0A04900D0A0490090805900000000082
:100280000D0A04900D0A04900D0A0490000000006D
:08029000000000000D0A0490BB
:1002A00010B5054C237833B9044B13B10448AFF3B0
:1002B00000800123237010BDE8030024000000002B
:1002C000345F059008B5034B1BB103490348AFF3F6
:1002D000008008BD00000000EC030024345F05909E
:1002E000034613F8012B002AFBD1181A0138704776
:1002F00001F0FF01102A2BDB10F0070F08D010F8D7
:10030000013B013A8B422DD010F0070F42B3F6D1DA
:10031000F0B441EA012141EA014122F007047FF0F3
:1003200000070023F0E80256083C85EA010586EA4A
:10033000010685FA47F5A3FA87F586FA47F6A5FA86
:1003400087F68EB9EED1F0BC01F0FF0102F0070292
:1003500032B110F8013B013A83EA010313B1F8D13D
:100360000020704701387047002D06BF354603381E
:10037000073815F0010F07D1013015F4807F02BF57
:10038000013015F4C03F0130F0BC0138704700BFA8
:1003900081F0004102E000BF83F0004330B54FEA36
:1003A00041044FEA430594EA050F08BF90EA020FA3
:1003B0001FBF54EA000C55EA020C7FEA645C7FEA36
:1003C000655C00F0E2804FEA5454D4EB5555B8BF59
:1003D0006D420CDD2C4480EA020281EA030382EACA
:1003E000000083EA010180EA020281EA0303362D5C
:1003F00088BF30BD11F0004F4FEA01314FF4801C2F
:100400004CEA113102D0404261EB410113F0004F40
:100410004FEA03334CEA133302D0524263EB4303F7
:1004200094EA050F00F0A780A4F10104D5F1200E95
:100430000DDB02FA0EFC22FA05F2801841F10001F0
:1004400003FA0EF2801843FA05F359410EE0A5F1C4
:1004500020050EF1200E012A03FA0EFC28BF4CF0F5
:10046000020C43FA05F3C01851EBE37101F00045AB
:1004700007D54FF0000EDCF1000C7EEB00006EEBB8
:100480000101B1F5801F1BD3B1F5001F0CD3490842
:100490005FEA30004FEA3C0C04F101044FEA445299
:1004A00012F5800F80F09A80BCF1004F08BF5FEA20
:1004B000500C50F1000041EB045141EA050130BD00
:1004C0005FEA4C0C404141EB0101013C28BFB1F512
:1004D000801FE9D291F0000F04BF01460020B1FA5D
:1004E00081F308BF2033A3F10B03B3F120020CDA30
:1004F0000C3208DD02F1140CC2F10C0201FA0CF00E
:1005000021FA02F10CE002F11402D8BFC2F1200C72
:1005100001FA02F120FA0CFCDCBF41EA0C01904028
:10052000E41AA2BF01EB0451294330BD6FEA040471
:100530001F3C1CDA0C340EDC04F11404C4F120025C
:1005400020FA04F001FA02F340EA030021FA04F36E
:1005500045EA030130BDC4F10C04C4F1200220FAC5
:1005600002F001FA04F340EA0300294630BD21FA03
:1005700004F0294630BD94F0000F83F4801306BFC9
:1005800081F480110134013D4EE77FEA645C18BFBD
:100590007FEA655C29D094EA050F08BF90EA020F54
:1005A00005D054EA000C04BF1946104630BD91EA4C
:1005B000030F1EBF0021002030BD5FEA545C05D14F
:1005C0004000494128BF41F0004130BD14F580048E
:1005D0003CBF01F5801130BD01F0004545F0FE4102
:1005E00041F470014FF0000030BD7FEA645C1ABF37
:1005F000194610467FEA655C1CBF0B46024650EA6E
:10060000013406BF52EA033591EA030F41F4002199
:1006100030BD00BF90F0000F04BF0021704730B51F
:100620004FF4806404F132044FF000054FF00001F4
:1006300050E700BF90F0000F04BF0021704730B5B5
:100640004FF4806404F1320410F0004548BF40428A
:100650004FF000013EE700BF42004FEAE2014FEADF
:1006600031014FEA02701FBF12F07F4393F07F4FBA
:1006700081F06051704732F07F4208BF704793F0BD
:100680007F4F04BF41F40021704730B54FF46074D0
:1006900001F0004521F000411CE700BF50EA0102D3
:1006A00008BF704730B54FF000050AE050EA01027C
:1006B00008BF704730B511F0004502D5404261EBEC
:1006C00041014FF4806404F132045FEA915C3FF42D
:1006D000D8AE4FF003025FEADC0C18BF03325FEACA
:1006E000DC0C18BF033202EBDC02C2F1200300FA7B
:1006F00003FC20FA02F001FA03FE40EA0E0021FAA0
:1007000002F11444BDE600BF53B94AB9002908BF3D
:1007100000281CBF4FF0FF314FF0FF3000F074B9DC
:10072000ADF1080C6DE904CE00F006F8DDF804E048
:10073000DDE9022304B070472DE9F047089D044627
:100740008E46002B4DD18A42944669D9B2FA82F284
:1007500052B101FA02F3C2F1200120FA01F10CFAC0
:1007600002FC41EA030E94404FEA1C48210CBEFBF8
:10077000F8F61FFA8CF708FB16E341EA034306FB81
:1007800007F199420AD91CEB030306F1FF3080F010
:100790001F81994240F21C81023E63445B1AA4B25D
:1007A000B3FBF8F008FB103344EA034400FB07F7FF
:1007B000A7420AD91CEB040400F1FF3380F00A8140
:1007C000A74240F207816444023840EA0640E41B35
:1007D00000261DB1D4400023C5E900433146BDE8E1
:1007E000F0878B4209D9002D00F0EF800026C5E983
:1007F000000130463146BDE8F087B3FA83F6002E9B
:100800004AD18B4202D3824200F2F980841A61EB12
:10081000030301209E46002DE0D0C5E9004EDDE730
:1008200002B9FFDEB2FA82F2002A40F09280A1EB18
:100830000C014FEA1C471FFA8CFE0126200CB1FB6D
:10084000F7F307FB131140EA01410EFB03F0884266
:1008500008D91CEB010103F1FF3802D2884200F2F3
:10086000CB804346091AA4B2B1FBF7F007FB101185
:1008700044EA01440EFB00FEA64508D91CEB040423
:1008800000F1FF3102D2A64500F2BB800846A4EB7E
:100890000E0440EA03409CE7C6F12007B34022FA69
:1008A00007FC4CEA030C20FA07F401FA06F31C4398
:1008B000F9404FEA1C4900FA06F3B1FBF9F8200CA5
:1008C0001FFA8CFE09FB181140EA014108FB0EF0EB
:1008D000884202FA06F20BD91CEB010108F1FF3A3B
:1008E00080F08880884240F28580A8F10208614447
:1008F000091AA4B2B1FBF9F009FB101144EA014155
:1009000000FB0EFE8E4508D91CEB010100F1FF34FF
:100910006CD28E456AD90238614440EA0840A0FB97
:100920000294A1EB0E01A142C846A64656D353D06D
:100930005DB1B3EB080261EB0E0101FA07F722FA91
:1009400006F3F1401F43C5E9007100263146BDE8BA
:10095000F087C2F12003D8400CFA02FC21FA03F31D
:10096000914001434FEA1C471FFA8CFEB3FBF7F09E
:1009700007FB10360B0C43EA064300FB0EF69E42C3
:1009800004FA02F408D91CEB030300F1FF382FD25C
:100990009E422DD9023863449B1B89B2B3FBF7F604
:1009A00007FB163341EA034106FB0EF38B4208D9DD
:1009B0001CEB010106F1FF3816D28B4214D9023E1E
:1009C0006144C91A46EA004638E72E46284605E73C
:1009D0000646E3E61846F8E64B45A9D2B9EB02080D
:1009E00064EB0C0E0138A3E74646EAE7204694E79D
:1009F0004046D1E7D0467BE7023B614432E73046D0
:100A000009E76444023842E7704700BFFEE700BFD1
:100A10000A480B4A904203D0121A0A4913F06EFF9B
:100A200009480A4A904203D0121A002113F08EFF9F
:100A300013F030FF01F0D2FCFEE700BF00000024FD
:100A4000E8030024645F0590E8030024C434002414
:100A5000704700BF704700BF704700BF704700BFBE
:100A6000704700BF704700BF40207047802070472C
:100A700049424FF480621030C9B213F067BF00BF23
:100A800010B504464FF4826113F0D9F9204610BD29
:100A900010B5084B04468069236018B1216A091A11
:100AA00013F0CDF9E06818B16169091A13F0C7F9BC
:100AB000204610BD3C54059010B50446006818B19E
:100AC000A168091A13F0BBF9204610BD10B5044601
:100AD000006818B1A168091A13F0B1F9204610BDD9
:100AE000064B1B7823B1064B186803685B6B1847ED
:100AF000034B186803689B69184700BFCC090024A2
:100B000000050024064B1B7823B1064B18680368C8
:100B10005B6A1847034B186803689B68184700BF57
:100B2000CC09002400050024064B1B7823B1064B9A
:100B3000186803689B6A1847034B18680368DB68EA
:100B4000184700BFCC09002400050024064B1B7881
:100B500023B1064B18680368DB6A1847034B186813
:100B600003681B69184700BFCC0900240005002456
:100B7000064B1B7823B1064B186803681B6B18479C
:100B8000034B186803685B69184700BFCC09002451
:100B900000050024074B1B783BB1074B074A186838
:100BA0000368DB69934204D17047034B18680368FC
:100BB0001B681847CC09002400050024590A04903A
:100BC000074B1B783BB1074B074A186803681B6A41
:100BD000934204D17047034B186803685B68184759
:100BE000CC090024000500245D0A04902DE9F04F93
:100BF0004FF0B00885B0054600F1080700F18F06F8
:100C000000F28F494FF47A7B4FF0000A297B0223D0
:100C100003AA3846CDF800B0A6F180048DF80CA0E8
:100C20008DF80D8005F0CAFC297B022303AA384603
:100C3000CDF800B08DF80CA08DF80DA005F0BEFC2D
:100C40004FF0100C297B022303AA3846CDF800B0E0
:100C50008DF80CA08DF80DC005F0B0FC4FF47A7043
:100C600014F801CF4FF0400E297B0223009003AA15
:100C700038468DF80CE08DF80DC005F09FFCB442AD
:100C8000ECD104F1800608F101084E455FFA88F8BE
:100C9000B8D105B0BDE8F08F2DE9F04F89B008ACB0
:100CA0009DF84870019104E90C000B78002B00F0CE
:100CB000AB801A469DF818809DF8193006464546C7
:100CC00090460393079B0593A8F12004E3B25E2BA3
:100CD00000F29E8033685E4ADB68934240F09B805E
:100CE0008020B3882B44834200F392803368594AB2
:100CF0009B68934240F092804020F188039A0291D1
:100D00008B18834200F38480002A00F0918002FB5C
:100D100004F46FF00049059BA1441444B6F804B0F4
:100D200003EB4909023BCDF8108003EB44030C466A
:100D30009A4639F802CFA5B304F007034FF0010E2D
:100D4000E20859460EFA03FE0BF110034FFA8EFE2D
:100D500003EBC21200236FEA0E0832440DE07F2934
:100D600006D83F2C04D8107897B14EEA00001070D6
:100D7000013301320131AB4213D00CFA03F000040D
:100D8000EDD47F29F4D83F2CF2D81078002FECD086
:100D9000013308EA000001320131AB4202F8010CD4
:100DA000EBD1D14504F10104C3D1DDF810803268E4
:100DB0000BEB05042649D368A4B28B4234D18020C2
:100DC000844204D3D36822498B423AD17F2493686A
:100DD000204AB480934224D14020029B834206D310
:100DE00033681C4A9B68934225D13F230293029BA0
:100DF000F380019B1878404507D113F8018F0193C8
:100E0000B8F1000F7FF460AF002009B0BDE8F08FAB
:100E10004FF00008EDE73046984762E730469847C4
:100E20006BE730469847D8E7304698473268C7E7BF
:100E3000B6F804B0BBE730469847013883B2029356
:100E4000D5E7304698470138326884B2BFE700BF23
:100E50006D0A0490690A04902DE9F04F85B0A1F164
:100E6000200504AC9DF83870009104E90C00EBB249
:100E70005E2B00F29580036880465D4ADB689DF832
:100E8000084093429DF8096040F094808020B8F8B3
:100E900004302344834200F38380D8F80030554A5D
:100EA0009B68934240F088804020B8F80620931950
:100EB0000192834274DC002E00F0898006FB05F568
:100EC0006FF00040039B964628442E44B8F804A0D7
:100ED00003EB4000023B03EB460B30F8026FBCB360
:100EE0000EF007034FF0010C4FEADE0251460CFAF8
:100EF00003FC0AF110034FFA8CFC03EBC21200232F
:100F00006FEA0C0942440EE07F2907D8BEF13F0F7B
:100F100004D815789FB14CEA0505157001330132EC
:100F200001319C4214D006FA03F52D04ECD47F293C
:100F3000F4D8BEF13F0FF1D81578002FEBD0013374
:100F400009EA0505013201319C4202F8015CEAD14F
:100F500058450EF1010EC0D1D8F800305444244950
:100F6000DA68A4B28A422DD1802084421CD29B68C8
:100F7000204AA8F80440934221D14020019B83429B
:100F800007D3D8F800301B4A9B68934229D13F23EE
:100F90000193DDE90003A8F8063005B0BDE8F08F45
:100FA000002005B0BDE8F08FDA6811498A4211D1FE
:100FB0007F24DCE798476AE74046984775E7404654
:100FC0009847DBE740469047D8F80030CDE7B8F8BF
:100FD00004A0C1E7404690470138D8F8003084B2F9
:100FE000C5E740469847013883B20193D1E700BF77
:100FF0006D0A0490690A04902DE9F04F89B01D46EE
:10100000884606901046129C10F8013B13999DF8F3
:101010005060009233B1002210F8013B0132002BE6
:10102000FAD193B22A78687812FB03F302B21BB2AA
:1010300023EAE373082900F2A681DFE811F0010139
:1010400013011F01330141014F0166016F010900C6
:10105000A18827880F44B4F90610FF1A0029BFB2EF
:10106000C0F2FE806488069804EB6104C280A4EBA1
:1010700052028380078094B24480A64AD8F8003098
:1010800011460192DA688A4240F08B818020B84292
:1010900005D8DA6801998A4240F098817F279E4AF4
:1010A0009B68A8F804709342039240F08781402027
:1010B000A04207D8D8F80030039A9B68934240F0CA
:1010C00080813F24009BA8F8064093F800B06B781D
:1010D0002C7804936B680793BBF1000F00F0AC8091
:1010E000ABF12005EBB25E2B00F22C81D8F800307A
:1010F000019ADB68934240F028818020B8F80430E0
:1011000023449842C0F21E81D8F80030039A9B68AD
:10111000934240F01D814020B8F80610049A0291D5
:101120008B189842C0F20E81002A00F01C8102FB4D
:1011300005F56FF0004E079BAE441544CDF814B092
:1011400003EB4E0E023BB8F804A003EB45030D463B
:101150009B463EF8027FA4B305F007034FF0010C55
:10116000EA0851460CFA03FC0AF110034FFA8CFC12
:1011700003EBC21200236FEA0C0942440DE07F2901
:1011800006D83F2D04D8107896B14CEA00001070B4
:101190000133013201319C4213D007FA03F00004FD
:1011A000EDD47F29F4D83F2DF2D81078002EECD062
:1011B000013309EA0000013201319C4202F8010CBE
:1011C000EBD1F34505F10105C3D1DDF814B0D8F832
:1011D00000200AEB04050199D368ADB28B4240F0C0
:1011E000BD808020854205D3D36801998B4240F0B1
:1011F000C3807F259368039AA8F80450934240F077
:10120000AA804020029B834208D3D8F80030039A7A
:101210009B68934240F0AA803F230293029BA8F868
:101220000630009A13785B4506D112F801BF009290
:10123000BBF1000F7FF454AF069809B0BDE8F08F02
:10124000B4F9041027880029B8BF013107EB610702
:10125000B4F90610A7EB63070029BFB2BFF602AFCF
:101260000131FFE6B4F900700699B4F902400F802D
:10127000BFB24C80A4B28B80CA80FEE6B4F90410E1
:1012800027880029B4F90240B8BF013107EB610794
:1012900006998B80A7EB63034C80A4B29FB2CA80EF
:1012A0000F80EAE6A1882788B4F902400F44069926
:1012B0008B80FB1A4C80A4B29FB2CA800F80DCE600
:1012C000E78861883944B4F90070081A069984B235
:1012D0000F808B80BFB2CA804C80CEE6B4F9041078
:1012E00027880029B8BF013107EB6107A7EB630727
:1012F000B4F802C0BFB2E488069964448B80201A17
:10130000CA800F8084B24C80B7E62788A1880F443A
:10131000FF1AEDE76D0A0490690A0490B4F906100B
:10132000B4F90070002964880698B8BF0131C28002
:1013300004EB610407808380BFB2A4EB520294B235
:1013400044809AE64FF0000B6BE740469847D5E69D
:1013500040469847E0E64046984753E7404698475E
:10136000D8F800203EE7B8F804A030E74046984798
:10137000013883B2029351E7404698470138D8F8C4
:10138000002085B236E7D8F800300024069A1349C9
:10139000148054809480D480DA6801918A4205D008
:1013A000274640469047D8F8003070E69B680C4AC4
:1013B000A8F80440934203923FF484AE4046984715
:1013C00076E640469847013884B27BE6404690472F
:1013D0000138D8F8003087B261E600BF6D0A04908A
:1013E000690A04907F291ED83F2A1CD86BB1D30804
:1013F0004FF0010C02F0070201EBC3130CFA02F2EA
:10140000C1180B7C1A430A747047D3084FF0010CC3
:1014100002F0070201EBC3130CFA02FCC1180A7CAC
:1014200022EA0C020A7470472DE9F04F83B05C1A6F
:101430000C9E002C9DF83490A6EB0208B8BF6442C5
:10144000B8F1000FB8BFC8F100088B428CBF4FF055
:10145000010A4FF0FF3A9642A4EB080C51D84FF026
:10146000FF357F2B019512D83F2E10D8F50806F0D6
:10147000070E012703EBC5150544B9F1000F47D04E
:1014800007FA0EF795F810E047EA0E072F74964218
:1014900001D18B4229D0C8F100077F2914D83F2AF7
:1014A00012D8D50802F0070B4FF0010E01EBC5155D
:1014B0000544B9F1000F1BD00EFA0BFE95F810B0E1
:1014C0004EEA0B0E85F810E0B7EB4C0F4FEA4C05D7
:1014D00002DAACEB080C5144AC4202DD019DA4449D
:1014E0002A449942D9D19642D7D103B0BDE8F08FB2
:1014F0000EFA0BFB95F810E02EEA0B0E85F810E0C3
:10150000E2E701257F2B0195C5D83F2EAED9C2E772
:1015100007FA0EFE2F7C964227EA0E072F74B8D0EA
:10152000B9E700BF000000002DE9F04F2DED068B5C
:1015300083B01F4680460D469DF8503016460193F5
:10154000139B002BC0F22182129A134406EE103A2C
:10155000DDED127AB8EEC66B9FEDCD4BB8EEE77BB2
:101560009FEDCD5B27EE047B26EE046B87EE050B2B
:1015700086EE05ABF7EEC08BB0EE680A12F034FDD4
:1015800007EE907AB7EECAABF8EE679AB0EE408AF3
:10159000B0EE680A13F05CF860EE698AB0EE4A0AB1
:1015A00012F022FDB0EE409AB0EE4A0A13F050F865
:1015B00020EE690A29EE888A29EE899A70EE687A07
:1015C000F0EE006A39EE487A67EEA77AE7EE077A1E
:1015D000F4EEE67AF1EE10FA06D5139BB42B40F345
:1015E00096804FF0010901E04FF000090124784294
:1015F0004FF0000C0095E31B214627462246A340EE
:10160000B9F1000F6AD1424206EE90CACCF1000156
:1016100007EE102AB8EEE66A07EE901A06EE900A78
:10162000B8EEC77A139A66EE084AF8EEE77AB42A5B
:1016300027EE284AF8EEE66A67EE885A74EEC43A56
:1016400026EEA85A26EE096A66EE806A67EE897A67
:1016500027EE007AF5EEC03A40F3F280F1EE10FA90
:1016600000F17F8176EE473A74EEC54AF5EEC03A56
:10167000F1EE10FAF5EEC04ACCBF01220022F1EEE5
:1016800010FA00F1778136EE666A35EEC55AB5EE8E
:10169000C06AF1EE10FAB5EEC05ACCBF01210021AC
:1016A000F1EE10FA00F16F8177EEE66AF5EEC06AAE
:1016B000F1EE10FACCBF0127002775EEC45AF5EE03
:1016C000C05AF1EE10FA00F1478177EEC77AF5EED5
:1016D000C07AF1EE10FACCBF01240024002A40F0B9
:1016E0008A80002964D1BFB9C4BB9C4558DB0CF18A
:1016F000010C03EB4C0E1CEB000F0EF1010E00F081
:10170000C08098424FDB734600287FF779AF03B063
:10171000BDEC068BBDE8F08F009DA6EB0C0E00EB38
:10172000050ABAF17F0FDFD8BEF13F0FDCD84FEAD0
:10173000DE0B019D0AEBCB1A002D00F0B1800EF0FC
:10174000070BC2444FF0010E0EFA0BFE9AF810B0D0
:101750004EEA0B0E8AF810E0002CC6D0009DA6EBD6
:101760000C0EA5EB000ABAF17F0FBED8BEF13F0FF9
:10177000BBD84FEADE0B019D0AEBCB1A002D00F01F
:10178000AE800EF0070BC2444FF0010E9C450EFADE
:101790000BFE9AF810B04EEA0B0E8AF810E0A6DAAB
:1017A00098429E46AFDA01300EEB40030133ABE7BF
:1017B000009D0CEB060E00EB050ABAF17F0F92D8E4
:1017C000BEF13F0F8FD84FEADE0B019D0AEBCB1A1B
:1017D000002D73D00EF0070BC2444FF0010E0EFA2D
:1017E0000BFE9AF810B04EEA0B0E8AF810E0002FAC
:1017F0003FF47AAF90E7009D0CEB060EA5EB000AD4
:10180000BAF17F0F3FF66DAFBEF13F0F3FF669AF04
:101810004FEADE0B019D0AEBCB1A002D6DD00EF0C6
:10182000070BC2444FF0010E0EFA0BFE9AF810B0EF
:101830004EEA0B0E8AF810E000293FF454AFB7E7E8
:10184000F1EE10FA7ED44A4674EEC54AF5EEC04A6F
:10185000F1EE10FA6CD4002135EEC55AB5EEC05A3F
:10186000F1EE10FA5AD4002775EEC45AF5EEC05ABC
:10187000F1EE10FA3FF529AF0024002A3FF431AF12
:10188000B9E798428FDB00233BE700BFAFF300804E
:101890007A008BFCFA2109400000000000806640BD
:1018A000C2444FF0010B0EF0070E0BFA0EFE9AF831
:1018B00010B02BEA0E0E8AF810E015E7C2444FF084
:1018C000010B0EF0070E0BFA0EFE9AF810B02BEA81
:1018D0000E0E8AF810E0002F3FF406AF1CE7C2445A
:1018E0004FF0010B0EF0070E0BFA0EFE9AF810B037
:1018F0002BEA0E0E8AF810E0F7E6C2444FF0010B17
:101900000EF0070E0BFA0EFE9AF810B02BEA0E0E30
:101910008AF810E000293FF4E6AE49E777EEE66A80
:10192000F5EEC06AF1EE10FACCBF012700279BE765
:1019300036EE666AB5EEC06AF1EE10FACCBF012150
:10194000002189E776EE473AF5EEC03AF1EE10FA5B
:10195000CCBF0122002277E70124002A3FF4C1AE68
:1019600049E774EEC54A0122F5EEC04AF1EE10FADD
:101970007FF589AE35EEC55A0121B5EEC05AF1EEBC
:1019800010FA7FF591AE012797E6DDE912231344A3
:1019900006EE102A1293139B5B421393D8E500BF07
:1019A0002DE9F04F87B09DF84850109C2E460195C8
:1019B0009DF844509EB399422ED89946A24228D809
:1019C0007F29164694BF0023012308E09CF810806D
:1019D0004EEA080E8CF810E00136B44219D33F2EBF
:1019E000FAD8002BF8D14FEAD60C06F0070E4FF0CC
:1019F000010801EBCC1C08FA0EFE8444002DE5D151
:101A00009CF810B001362BEA0E0AB4428CF810A0F4
:101A1000E5D201318945D1D207B0BDE8F08FA3EB03
:101A20000108B8F1000FB8BFC8F100089942C0F032
:101A30004E817F2B4FF0FF3A94BF002601263F2AAC
:101A4000009694BF002701270297A6B99FB9D60830
:101A500002F0070C012703EBC6160644002D00F028
:101A6000948107FA0CF796F810C047EA0C07377410
:101A7000002602960096994200F0978146469446C9
:101A80008E46BEF17F0F16D8BCF13F0F13D84FEA38
:101A9000DC070CF0070B4FF001090EEBC7170744EA
:101AA000002D00F0398109FA0BF997F810B049EAD6
:101AB0000B0987F81090770018BFD644B84502DDAF
:101AC00046440CF1FF3C7345DBD16245D9D1002679
:101AD0000496A4EB0209009FB9F1000FB8BFC9F149
:101AE00000093F2C94BF00260126A242C9F100083C
:101AF0000396C0F02381002F40F05081002E40F06B
:101B00004D814FF0FF360096E60803EBC6160644FB
:101B1000002D00F01E814FF0010C04F007070CFAB5
:101B200007F796F810C047EA0C07377400260396AB
:101B3000A24200F03D81C44616461F4605927F2F03
:101B400015D83F2E13D84FEAD60E06F0070B4FF0EC
:101B5000010A07EBCE1E8644002D00F0E6800AFA4B
:101B60000BFA9EF810B04AEA0B0A8EF810A0B8EBF8
:101B70004C0F4FEA4C0E02DAACEB090C013FBEF100
:101B8000000F01D0009A1644BB42D8D1B442D6D13E
:101B9000059AA1EB030EBEF1000FB8BFCEF1000E07
:101BA0007F2994BF4FF0000A4FF0010A99428CBF81
:101BB0004FF001094FF0FF39BAF1000F13D1039E26
:101BC0008EB9E60801EBC6160644002D00F0D3805E
:101BD0004FF0010C04F007070CFA07F796F810C055
:101BE00047EA0C073774049E26BB774626467F2BB0
:101BF00014D83F2E12D84FEAD60C06F0070B4FF040
:101C0000010803EBCC1C8444002D73D008FA0BF8B8
:101C10009CF810B048EA0B088CF810805FEA470C7B
:101C200018BF4B44E64501DD7744013E9942DED1C1
:101C3000B442DCD1A2EB040EBEF1000FB8BFCEF16E
:101C4000000EA2428CBF4FF001084FF0FF38CEF1DA
:101C5000000CBAF1000F0ED1029B63B9D30802F059
:101C60000707012601EBC3130344002D7CD0BE40BF
:101C70001F7C3E431E74019B002B7FF4CDAE664655
:101C80000B467F2B12D83F2C10D8E70804F0070A28
:101C90004FF0010903EBC7170744A5B309FA0AF986
:101CA00097F810A049EA0A0987F81090BCEB460F94
:101CB0004FEA460702DAA6EB0E06013B07B14444A1
:101CC0009942DED1A242DCD107B0BDE8F08F3F2AB5
:101CD0004FF0010A94BF002601267F2B029694BF85
:101CE000002701270097002E7FF4C8AE002F3FF495
:101CF000AEAEC3E608FA0BFB9CF8108028EA0B088E
:101D00008CF810808AE709FA0AFA97F8109029EA05
:101D10000A0987F81090C9E709FA0BFB97F81090A9
:101D200029EA0B0987F81090C5E60AFA0BFB9EF822
:101D300010A02AEA0B0A8EF810A018E797BB8EBBFA
:101D400001260096E60803EBC6160644002D7FF434
:101D5000E2AE012704F0070C039507FA0CFC377C70
:101D600027EA0C073774E3E606FA07F71E7C26EA33
:101D700007061E747FE7012704F0070C07FA0CFC26
:101D8000377C27EA0C0737742DE707FA0CFC377C01
:101D9000029527EA0C07009537746CE64FF0FF3682
:101DA0000096C5E601260096C5E60126049690E653
:101DB00001260196EDE600BF2B48C37A063070B5C8
:101DC000002B4BD004F0D6F9B0FA80F04009274E32
:101DD0002749D6E9002308709A423ED000252946BB
:101DE00014E0A37A7F2B2CD16369984705F036FB6A
:101DF000962201232061A26123770135D6E90023D1
:101E0000ADB29B1A2946B5EBA30F26D252F821405A
:101E1000204603F0A9FF2379002BE2D1237F002B7A
:101E2000EBD005F01BFB2369A269134498420CD840
:101E30002379002BE1D0A37A802BDED100232377F6
:101E4000DBE7227F002AF7D0EBE76369984705F0CC
:101E500005FB0F232061A361CFE770BD04F08AF971
:101E6000003818BF0120B2E7C4040024F4040024A1
:101E7000CC0900242DE9F843914688462DED028BCC
:101E8000FFF79AFFB9F1000F28D00026154F16482A
:101E900000259FED168A02F049F93B685C59083528
:101EA00094F8641004F1300011F070FD201D84EDF1
:101EB000180A84ED020A11F0C1FD202D38EE008AC7
:101EC000EBD1D8E9002302EB860203EB860301364F
:101ED00082ED008AB14583ED008AD8D1BDEC028B3A
:101EE000BDE8F88314090024640900240000000000
:101EF00084B070B584B004464FF47A7609AD85E8B5
:101F00000E009DF8383029460025037104F0C0FA10
:101F1000AE2303AA00968DF80D30204621790223C6
:101F20008DF80C5004F04AFBD52303AA00962046F6
:101F300021798DF80D3002238DF80C5004F03EFB12
:101F4000802303AA0096204621798DF80D300223C4
:101F50008DF80C5004F032FBA82303AA009620460B
:101F600021798DF80D3002238DF80C5004F026FBFA
:101F70003F2303AA0096204621798DF80D300223D5
:101F80008DF80C5004F01AFBDA2303AA00962046C1
:101F900021798DF80D3002238DF80C5004F00EFBE2
:101FA000122303AA0096204621798DF80D300223D2
:101FB0008DF80C5004F002FBD32303AA00962046B0
:101FC00021798DF80D3002238DF80C5004F0F6FACB
:101FD00003AA00960223217920468DF80C508DF833
:101FE0000D5004F0EBFA402303AA00962046217915
:101FF0008DF80D3002238DF80C5004F0DFFAA62383
:1020000003AA0096204621798DF80D3002238DF821
:102010000C5004F0D3FAA42303AA00962046217999
:102020008DF80D3002238DF80C5004F0C7FA8D2383
:1020300003AA0096204621798DF80D3002238DF8F1
:102040000C5004F0BBFA142303AA00962046217911
:102050008DF80D3002238DF80C5004F0AFFAA12357
:1020600003AA0096204621798DF80D3002238DF8C1
:102070000C5004F0A3FAC82303AA00962046217945
:102080008DF80D3002238DF80C5004F097FA81235F
:1020900003AA0096204621798DF80D3002238DF891
:1020A0000C5004F08BFA8F2303AA00962046217966
:1020B0008DF80D3002238DF80C5004F07FFAD923EF
:1020C00003AA0096204621798DF80D3002238DF861
:1020D0000C5004F073FA252303AA009620462179B8
:1020E0008DF80D3002238DF80C5004F067FADB23D5
:1020F00003AA0096204621798DF80D3002238DF831
:102100000C5004F05BFA342303AA00962046217990
:102110008DF80D3002238DF80C5004F04FFAAF21EA
:10212000009603AA02238DF80D10204621798DF820
:102130000C5004F043FA04B0BDE8704004B070479E
:102140002DE9F84FD0E900890F4692466FF06041C3
:10215000A9EB0802B1EBA20F54D093100646A7EBEF
:102160000805012B1C4638BF01241C1948D2002C3D
:102170003CD1A346DAF80030002D4BF8053024DCC2
:10218000A9EB07090435B9F1000F5D4413DC4D4498
:10219000B8F1000F04D1B460C6E900B5BDE8F88F0E
:1021A000B168A1EB0801404611F049FEB460C6E9F0
:1021B00000B5BDE8F88F284639464A464D4412F02E
:1021C0009DFBB8F1000FE6D0EAE7A9EB07092A4624
:1021D00041465846043512F09FFBB9F1000F5D44AB
:1021E000E9DCB1684D44A1EB0801DCE78C4228BF73
:1021F0000C46A400204611F024FE83460444B9E7AF
:10220000024CF7E7024811F030FE00BFFCFFFF7FF1
:10221000E45205902DE9F84FD0E900890F46924627
:102220006FF06041A9EB0802B1EBA20F54D09310FC
:102230000646A7EB0805012B1C4638BF01241C19D4
:1022400048D2002C3CD1A346DAF80030002D4BF8E0
:10225000053024DCA9EB07090435B9F1000F5D4412
:1022600013DC4D44B8F1000F04D1B460C6E900B5E9
:10227000BDE8F88FB168A1EB0801404611F0DFFD21
:10228000B460C6E900B5BDE8F88F284639464A462D
:102290004D4412F033FBB8F1000FE6D0EAE7A9EBAA
:1022A00007092A4641465846043512F035FBB9F174
:1022B000000F5D44E9DCB1684D44A1EB0801DCE7A7
:1022C0008C4228BF0C46A400204611F0BAFD83467C
:1022D0000444B9E7024CF7E7024811F0C6FD00BF1D
:1022E000FCFFFF7FE452059008B5D0E9013293422C
:1022F00004D00A6843F8042B436008BD0A46194617
:10230000FFF788FF08BD00BF2DE9F84FD0E900892D
:102310000F4692466FF06041A9EB0802B1EBA20FA5
:1023200054D093100646A7EB0805012B1C4638BF76
:1023300001241C1948D2002C3CD1A346DAF8003005
:10234000002D4BF8053024DCA9EB07090435B9F161
:10235000000F5D4413DC4D44B8F1000F04D1B460AC
:10236000C6E900B5BDE8F88FB168A1EB08014046A9
:1023700011F065FDB460C6E900B5BDE8F88F2846E8
:1023800039464A464D4412F0B9FAB8F1000FE6D08A
:10239000EAE7A9EB07092A4641465846043512F0F8
:1023A000BBFAB9F1000F5D44E9DCB1684D44A1EB23
:1023B0000801DCE78C4228BF0C46A400204611F03F
:1023C00040FD83460444B9E7024CF7E7024811F0A8
:1023D0004CFD00BFFCFFFF7FE45205902DE9F04764
:1023E0000021CA480026DFF88893DFF888A3C84F89
:1023F0002DED028B98B002F03DFB0B2002F044FA69
:1024000003460C200CADADF8343002F03DFA3C230D
:10241000022212ACADF836008DF840308DF8443011
:10242000A0460C96CDE90E260FCD0FC495E803000B
:1024300018AB84E8030013E907008DE8070009F1F1
:10244000080098E80E00FFF753FD0821AF4802F09E
:1024500039FAAE4802F032FADAF80030B0EE408ACB
:10246000C7F80490BB60BE8687F836601296D7E93D
:102470000713994200F0448141F8046BF96100248C
:10248000F0EE480AB7EE000AA2483C6311F096FC51
:102490004FF086439FEDA00A9E48BB6311F0BAFC43
:1024A0009B4802F013F99A48DFF8CC927C6501F062
:1024B0006BF91320994E02F0E7F9ADF84800B0EE41
:1024C000480A1299ADF81000484603F033FC944BCB
:1024D00041469448C9F8143089F81C40CDF848901A
:1024E000FFF702FF1420904D02F0CEF9ADF848003E
:1024F000B0EE480A1299ADF81400304603F01AFC09
:102500008A4B41468748736134771296FFF7ECFE99
:102510001620DFF8689202F0B7F9ADF84800B0EE87
:10252000480A1299ADF81800284603F003FC804BC6
:1025300041467C486B612C771295FFF7D5FE15203C
:102540007C4E02F0A1F9ADF81C00B0EE480A0799E4
:10255000794803F0EFFB102002F096F9ADF848003F
:10256000B0EE480A1299ADF82000484603F0E2FBAD
:10257000724B41466B48C9F8143089F81C40CDF8BD
:102580004890FFF7B1FE0F206D4D02F07DF9ADF8D8
:102590004800B0EE480A1299ADF82400304603F026
:1025A000C9FB684B41465F48736134771296FFF769
:1025B0009BFE1220DFF8B49102F066F9ADF84800F6
:1025C000B0EE480A1299ADF82800284603F0B2FB95
:1025D0005D4B414653486B6104262C771295FFF7FB
:1025E00083FE5A4D112002F04FF9ADF84800B0EECD
:1025F000480A1299ADF82C00284603F09BFB544B77
:10260000414648486B612C771295FFF76DFEDAF86A
:102610000030C3F80490C3F80C90C3F81490C3F8CA
:102620001C901C609C601C619C616820002511F05E
:1026300008FC0023474A03634363C363C364036521
:1026400043658263026442648264A0F85C50129025
:10265000D9E90114A1420B464BD043F8040BC9F849
:102660000430B7EE007A53F8044C4FF07C5A002344
:102670009FED390A201DC7EE087AE36184ED058AD3
:1026800004F1300584ED030AC4F808A0C4F810A0D2
:10269000C4ED067A11F08CFBF0EE407A002240F295
:1026A0000113B0EE480A0121C4ED087A28462271D0
:1026B000A38511F073F801219FED280A28462171A6
:1026C00011F0DCF89FED260A0221284611F0D6F819
:1026D0009FED220A04212846C4F830A011F0CEF85C
:1026E000013EA2D11F4B204908481F6002F0E2F8CA
:1026F000FEE742461D48FFF707FED9F80430B0E771
:10270000424607F11800FFF71BFDB8E61809002440
:1027100064090024BC090024898808412404002499
:10272000950B0490F404002484040024C10B04904D
:10273000E10A0490A4040024C40400244D0B049076
:10274000D4040024710B0490050B0490440400246D
:10275000290B0490000080BF0000C842CDCCCC3DC6
:102760009A99193F00050024751E04905809002409
:102770000405002414090024040400246404002433
:1027800070B52D4800242D4D2D492A460460446122
:102790000462C46311F04EFB2A482B4B2A462B4996
:1027A0008460036011F046FB294B2A482A462A49D7
:1027B00003602A4EC0E90344C0E90544C0E9074468
:1027C00011F038FB26482A4626498460C0E90044B7
:1027D00011F030FB2A463146234811F02BFB2A46E4
:1027E0003146224811F026FB2A462149214811F0A2
:1027F00021FB2A463146204811F01CFB2A4631466F
:102800001E4811F017FB2A4631461D4811F012FBF5
:102810002A4631461B4811F00DFB2A4631461A481C
:1028200011F008FB19482A4619498460C0E90044A0
:10283000BDE8704011F0FEBA180900240000002421
:10284000550A04900405002408530590650A049075
:102850003C54059064090024910A0490610A049094
:1028600058090024B90A0490040400242404002414
:10287000510A0490C404002484040024D4040024D5
:102880004404002464040024A4040024F404002468
:10289000CD0A049090F83430002283F0010380F8D0
:1028A000362080F83430704790F8342090F8363075
:1028B00082F0010283F0010380F8342080F8363082
:1028C000704700BF2DE9F04F054683B00C46174610
:1028D0008BB301F1060A02F10609AF4E8B46B846EA
:1028E0000CE0BBF17F0F05D8B8F13F0F02D81A7C7E
:1028F0001143197408F10108C84515DC686808F02F
:10290000070401214FEAD8030268A1400BEBC3136F
:1029100054690344B442E4D0424608F1010801235B
:102920005946A047C845E9DD0BF1010BD345D6DD7B
:1029300003B0BDE8F08F4068974E0368D3F8148069
:10294000B04540F02B817F2910D83F2A0ED8D308FC
:1029500002F0070201EBC313184401239340027CE9
:102960001343037468680368D3F81480B04504F116
:10297000010B40F01E81BBF17F0F10D83F2F0ED806
:10298000FB0807F007020BEBC31318440123934025
:10299000027C1343037468680368D3F81480B0455D
:1029A00007F1010940F012817F2C12D8B9F13F0FD5
:1029B0000FD84FEAD90309F0070204EBC3131844F8
:1029C00001239340027C1343037468680368D3F8BF
:1029D0001480B04504F1060A40F00581BAF17F0F7A
:1029E00010D83F2F0ED8FB0807F007020AEBC313DD
:1029F000184401239340027C1343037468680368FE
:102A0000D3F81480621DB045019240F0F9807F2A0E
:102A100010D83F2F0ED8FB0802EBC31307F00702B4
:102A2000184401239340027C1343037468680368CD
:102A3000D3F81480B04540F0EE80BAF17F0F13D880
:102A4000B9F13F0F10D84FEAD90309F007090AEB93
:102A5000C31318440123027C03FA09F313430374DC
:102A600068680368D3F81480B04507F1060940F0A0
:102A7000DF807F2C12D8B9F13F0F0FD84FEAD9036E
:102A800009F0070204EBC313184401239340027CAE
:102A90001343037468680368D3F81480B04540F0AA
:102AA000D280BBF17F0F12D8B9F13F0F0FD84FEA98
:102AB000D90309F007020BEBC31B012358449340D1
:102AC000027C1343037468680368D3F81480B0452C
:102AD00007F1050740F0C3807F2C10D83F2F0ED898
:102AE000FB0807F0070204EBC314012320449340C2
:102AF000027C1343037468680368D3F81480B045FC
:102B000040F0B880BAF17F0F12D8B9F13F0F0FD85B
:102B10004FEAD90309F007020AEBC3131844012353
:102B20009340027C1343037468680368D3F81480ED
:102B3000B04540F0AA80019A7F2A13D8B9F13F0F1F
:102B400010D84FEAD90309F0070902EBC313184460
:102B50000123027C03FA09F31343037468680368D2
:102B6000D3F81480B04540F09B80BAF17F0F3FF658
:102B7000DFAE3F2F3FF6DCAEFB08012207F0070770
:102B80000AEBC31A02FA07F35044027C134303749E
:102B900003B0BDE8F08F00BFE5130490012304F1FA
:102BA000010BC04768680368D3F81480B0453FF450
:102BB000E2AE01233A46594607F10109C047686869
:102BC0000368D3F81480B0453FF4EEAE01234A46C3
:102BD000214604F1060AC04768680368D3F81480E8
:102BE000B0453FF4FBAE01233A465146C047686802
:102BF000621D0368D3F814800192B0453FF407AF1B
:102C000001233A460199C04768680368D3F81480E5
:102C1000B0453FF412AF4A460123514607F1060979
:102C2000C04768680368D3F81480B0453FF421AF0B
:102C300001234A462146C04768680368D3F81480D8
:102C4000B0453FF42EAF012359464A460537C047E9
:102C500068680368D3F81480B0453FF43DAF0123A2
:102C600021463A46C04768680368D3F81480B045E7
:102C70003FF448AF01234A465146C047686803689D
:102C8000D3F81480B0453FF456AF01234A4601996A
:102C9000C04768680368D3F81480B0453FF465AF57
:102CA00001233A465146C44603B0BDE8F04F6047A1
:102CB0002DE9F04F1F4683B0D31E14460D468246C1
:102CC000164688460193012F12D0022F41D0032FC0
:102CD00068D0042F00F09380013C019B013508F17E
:102CE000FF389C4206F10106EDD103B0BDE8F08F3C
:102CF000DAF80400DFF8A0910368D3F814B0CB45EC
:102D000040F091807F2D11D83F2E0FD8F30805EBAE
:102D1000C313184406F00703027C07FA03F31343B6
:102D20000374DAF804000368D3F814B0CB4540F01C
:102D300086807F2DD0D83F2CCED8E30805EBC31377
:102D4000184404F0070201239340027C13430374E8
:102D5000C2E7DAF80400DFF840910368D3F814B052
:102D6000CB4576D1B8F17F0F11D83F2E0FD8F3089D
:102D700006F0070208EBC313184401239340027CBA
:102D800013430374DAF804000368D3F814B0CB4596
:102D90005AD1B8F17F0F9FD83F2C9DD8E30808EB9C
:102DA000C313CDE7DAF80400DFF8EC900368D3F83A
:102DB00014B0CB455CD17F2D11D83F2E0FD8F3082E
:102DC00006F0070205EBC313184401239340027C6D
:102DD00013430374DAF804000368D3F814B0CB4546
:102DE00041D1B8F17F0F3FF677AF3F2E3FF674AF7A
:102DF000F30806F0070208EBC3131844A3E7DAF858
:102E00000400DFF894900368D3F814B0CB4539D1AF
:102E10007F2DBCD83F2CBAD8E30804F0070205EB9D
:102E2000C3131844A9E73B4632462946D847DAF887
:102E300004000368D3F814B0CB453FF47AAF012304
:102E400022462946D84747E7012322464146D8472C
:102E500042E7012332464146D847DAF804000368C6
:102E6000D3F814B093E7012332464146D84733E7FD
:102E7000012332462946D847DAF804000368D3F81C
:102E800014B0ACE7012322462946D847DAF80400FB
:102E90000368D3F814B07AE7E513049038B50C460C
:102EA0001AB3012A1D4628D0022A22D0032A28D08C
:102EB000042A2AD0052A0CBF164B174B1B880B80FF
:102EC000092D204608DCFDF70BFA2A462044134959
:102ED000BDE8384011F076BEFDF702FA2A462044DC
:102EE0000F49BDE8384011F06DBE0E4B1868086000
:102EF00038BD0D4B1B880B80E2E70C4B1B880B8009
:102F0000DEE70B4B1B880B80DAE70A4B1B880B8034
:102F1000D6E700BF50530590545305905853059081
:102F20005C5305903C5305904453059040530590E5
:102F3000485305904C53059010B5354C8E4684FB94
:102F4000023CD317C3EB6C0303EB43034FEA830C40
:102F5000A2EB830384FB0C124FEAEC7CCCEB620205
:102F60000B2B4FD8DFE803F00C12181E242A303642
:102F70003C42480670462749BDE8104011F022BE89
:102F800070462549BDE8104011F01CBE704623492B
:102F9000BDE8104011F016BE70462149BDE8104052
:102FA00011F010BE70461F49BDE8104011F00ABE76
:102FB00070461D49BDE8104011F004BE70461B4923
:102FC000BDE8104011F0FEBD70461949BDE8104043
:102FD00011F0F8BD70461749BDE8104011F0F2BD80
:102FE00070461549BDE8104011F0ECBD704613491C
:102FF000BDE8104011F0E6BD70461149BDE8104033
:1030000011F0E0BD0F4B1868CEF8000010BD00BFF6
:10301000ABAAAA2AB853059060530590685305904F
:103020007053059078530590805305908853059010
:103030009053059098530590A0530590A853059080
:10304000B0530590C05305902DE9F04F15468AB254
:10305000466887B002F102099846336804461FFAB1
:1030600089F93046DB68AF1C02910392BFB29847E2
:10307000814506D333683046DB68984701381FFA2C
:1030800080F933683046A6F804909B6898478742D9
:10309000C0F09982336830469B689847013880B207
:1030A000D8F80020F080002A12DBD8F80430002B7A
:1030B0000EDB092A04F1400AD8BF03495046C8BFB5
:1030C000024911F07FFD0CE0C85305905C53059058
:1030D000B14B04F1400A1A889B78A4F840208AF882
:1030E000023060680122DFF8BC925146036800920A
:1030F0009E6A99E80C00B047039B666803F10D0BCC
:10310000326830461FFA8BFBD2689047834506D35E
:1031100032683046D268904701381FFA80FB326827
:103120003046A6F804B0926890478742C0F03F82CC
:103130003268304692689047D8F800300138002B4A
:1031400080B2F080C0F23A82D8F80420514620467E
:10315000FFF7F2FE60680122514603680092D3F83F
:1031600028B099E80C00D847039ED4F804B01C3668
:10317000DBF800305846B6B2DB689847864206D383
:10318000DBF800305846DB689847013886B2DBF838
:1031900000305846ABF804609B689847874206D3D6
:1031A000DBF8003058469B689847013887B2D8F85A
:1031B0000030ABF80670002B04DBD8F80430002B8D
:1031C00080F20382754B1868CAF8000060685146A7
:1031D0004FF0010A066899E80C00CDF800A0B66A25
:1031E000B04798F81030002B00F0DE8160686C4F1B
:1031F0000368029A5E690492BE4240F0F9817F2A18
:1032000011D83F2D0FD8EB0802EBC313184405F07B
:1032100007030AFA03FA037C4AEA030A80F810A0BB
:10322000606803685E69029BBE4203F1010203927B
:1032300040F0EC817F2A0FD83F2D0DD8EB0802EB30
:10324000C31305F00702184401239340027C134383
:103250000374606803685E69BE4205F1010940F0CD
:10326000E181029A7F2A11D8B9F13F0F0ED84FEAB7
:10327000D90302EBC31309F007021844012393405A
:10328000027C13430374606803685E69029BBE425C
:1032900003F1280B40F0D381BBF17F0F0FD83F2DF6
:1032A0000DD8EB0805F007020BEBC31318440123FC
:1032B0009340027C13430374606803685E69029B59
:1032C000BE4203F12702059240F0C7817F2A0FD842
:1032D0003F2D0DD8EB0802EBC31305F0070218448D
:1032E00001239340027C13430374606803685E69A2
:1032F000BE4240F0BC81BBF17F0F15D8B9F13F0F42
:1033000012D84FEAD90309F007024FF001090BEB7D
:10331000C31309FA02F91844037C49EA030980F847
:103320001090606803685E69BE4205F1080940F0CC
:10333000AA81029A7F2A11D8B9F13F0F0ED84FEA1D
:10334000D90302EBC31309F0070218440123934089
:10335000027C13430374606803685E69BE4240F0F8
:103360009C81039A7F2A11D8B9F13F0F0ED84FEAFA
:10337000D90302EBC31309F0070218440123934059
:10338000027C13430374606803685E69BE4205F102
:10339000070A40F08E8107E0C45305903C53059026
:1033A000E51304904C000024029A7F2A11D8BAF148
:1033B0003F0F0ED84FEADA0302EBC3130AF00702FD
:1033C000184401239340027C13430374606803682C
:1033D0005E69BE4240F07781BBF17F0F11D8B9F131
:1033E0003F0F0ED84FEAD90309F007020BEBC313C6
:1033F000184401239340027C1343037460680368FC
:103400005E69BE4240F06981059A7F2A11D8B9F100
:103410003F0F0ED84FEAD90302EBC31309F007029E
:10342000184401239340027C1343037460680368CB
:103430005E69BE4240F05B81BBF17F0F12D8BAF1EA
:103440003F0F0FD84FEADA030BEBC31B0AF0070359
:103450004FF0010A58440AFA03FA037C4AEA030AC5
:1034600080F810A094F83530002B00F09D8098F87B
:103470001830002B40F0B080029A531D0632984657
:103480000493039260686A1E03685E69BE4240F05E
:10349000618104997F2910D83F2A0ED8D30802F001
:1034A000070201EBC3131844012303FA02F2037C61
:1034B0001A430274606803685E69BE4240F042814C
:1034C000039A7F2A0FD83F2D0DD8EB0802EBC313C8
:1034D00005F00702184401239340027C1343037450
:1034E000606803685E69BE4208F1FF3840F02281DF
:1034F000B8F17F0F0FD83F2D0DD8EB0805F007026C
:1035000008EBC313184401239340027C1343037454
:10351000606803685E69BE4205F10902049940F0E3
:1035200003817F2910D83F2A0ED8D308012502F045
:10353000070201EBC31305FA02F21844037C1A4395
:103540000274606803685E69BE4240F0E580039AD9
:103550007F2A11D8B9F13F0F0ED84FEAD90302EBF9
:10356000C31309F00702184401239340027C13435C
:103570000374606803685E69BE4240F0C580B8F1BC
:103580007F0F11D8B9F13F0F0ED84FEAD9030122AE
:1035900009F0070908EBC31802FA09F94044037C53
:1035A00049EA030980F8109007B0BDE8F08FD8F819
:1035B00000303846002BF080BFF6C6AD714B18685E
:1035C000CAF80000C6E538466AE5D8E90223514644
:1035D0002046FFF763FCF9E5012B00F0C280022BC7
:1035E00000F0C780032B00F08780DDF8088049E7F2
:1035F00053462A460299B047606803685E69029B99
:10360000BE4203F1010203923FF414AE01232A46A5
:10361000039905F10109B047606803685E69BE421D
:103620003FF41FAE01234A460299B0476068036821
:103630005E69029BBE4203F1280B3FF42DAE0123CD
:103640002A465946B047606803685E69029BBE42DD
:1036500003F1270205923FF439AE01232A4605996A
:10366000B047606803685E69BE423FF444AE4A46B4
:103670000123594605F10809B047606803685E698F
:10368000BE423FF456AE01234A460299B0476068F5
:1036900003685E69BE423FF464AE01234A46039963
:1036A00005F1070AB047606803685E69BE423FF4EF
:1036B0007BAE012352460299B047606803685E6999
:1036C000BE423FF489AE01234A465946B04760687E
:1036D00003685E69BE423FF497AE012305994A46EE
:1036E000B047606803685E69BE423FF4A5AE5246CB
:1036F00059460123B047B5E6029B03F12302243368
:10370000904604920393BDE601234A464146B446DF
:1037100007B0BDE8F04F6047012303994A46B04720
:10372000606803685E6927E70123B0476068036843
:103730005E6909E701232A464146B047606803688D
:103740005E69E8E601232A460399B047606803688A
:103750005E69C8E601230499B047606803685E6942
:10376000ABE6029B03F111021233904604920393DD
:1037700088E6029B03F11D021E33904604920393D8
:1037800080E600BF3C5305902DE9F04F04464068A9
:10379000994A89B003681B69934240F0DF824FF475
:1037A00080620021103011F0D1F894F8363053B116
:1037B0006068924B026855699D4240F0D782037C55
:1037C00043F001030374226BA36953F82230002BEA
:1037D00080F230828A4F04F1400865682B682846E1
:1037E000DB689847652800F20D822B682846DB6865
:1037F0009847013883B2AB8028462B689B6898476E
:10380000012800F201822B6828469B6898470138FE
:1038100083B27C4A0121EB801068636820641A68D7
:10382000184600914146956A97E80C00A8476568DC
:103830002B682846DB689847722800F2E9812B68DC
:103840002846DB689847013883B2AB8028462B684E
:103850009B689847012800F2D9812B6828469B680D
:103860009847013883B2D4ED0E7A4046EB80FDEEE6
:10387000E77A654917EE902A11F0A4F960680122F1
:103880004146036800929D6A97E80C00A847656866
:103890002B682846DB689847652800F2C9812B68A9
:1038A0002846DB689847013883B2AB8028462B68EE
:1038B0009B689847082800F2B9812B6828469B68C6
:1038C0009847013883B2EB800122504B414618687B
:1038D0001B79206488F804306068036800929D6A50
:1038E00097E80C00A84765682B682846DB6898476E
:1038F000762800F299812B682846DB6898470138C2
:1039000083B2AB8028462B689B689847082800F252
:1039100089812B6828469B689847013883B2226BBF
:10392000EB80A36953F82230002BC0F2C781E36A11
:10393000404637491A69013211F044F960680122A2
:103940004146036800929D6A97E80C00A8476568A5
:103950002B682846DB689847652800F261812B6850
:103960002846DB689847013883B2AB8028462B682D
:103970009B6898470F2800F251812B6828469B6866
:103980009847013883B2234A0121EB8010686368AD
:1039900020641A68184600914146956A97E80C0021
:1039A000A84765682B682846DB689847722800F2AC
:1039B00033812B682846DB689847013883B2AB8097
:1039C00028462B689B6898470F2800F223812B68B4
:1039D00028469B689847013883B2226BEB80A36925
:1039E00053F82230002BC0F26481E36A4046064956
:1039F000DA6811F0E7F80FE0710A0490E51304901B
:103A00004C000024D0530590CC530590D45305901E
:103A1000DC530590E4530590606801224146036839
:103A200000929D6A97E80C00A847236B012B06DDE6
:103A30000023172270212046FEF744FF236B002B42
:103A400005DD00231F2270212046FEF73BFF2722C1
:103A5000702120460123FEF735FF256BD4E90612BD
:103A6000681C521AB0EBA20F4FEAA201C0F23381D8
:103A7000AA1C8A42C0F227816FF00109182619EBAF
:103A8000050541D4D4E906239B1AB5EBA30F3BDA15
:103A900052F82530002B37DBD4F804A0DAF80030D8
:103AA0005046DB689847722800F2AA80DAF80030A6
:103AB0005046DB689847013883B2AAF80430504674
:103AC000DAF800309B689847B04200F29780DAF845
:103AD000003050469B689847013883B2AAF80630F8
:103AE0004046A369A44953F8252011F06BF8236BD5
:103AF00060684146AB4203680CBF0022012200927D
:103B00009D6A97E80C00A847083609F10109B6B28A
:103B1000402E09D0256B19EB0505B3D5083609F100
:103B20000109B6B2402EF5D102232A227A2120467D
:103B3000FFF7BEF801232A226C212046FFF7B8F8D0
:103B40000323262267212046FFF7B2F804232E2202
:103B500067212046FFF7ACF86768884A3B681B6B13
:103B6000934240F0FE8007F1080807F18F0607F244
:103B70008F4A4FF0B00900244FF47A75022307AA48
:103B80008DF81C4040468DF81D90397B009502F061
:103B900015FD8DF81C408DF81D400223397B07AAC6
:103BA0004046009502F00AFD10238DF81C4007AA3C
:103BB0008DF81D304046397B02230095A6F1800424
:103BC00002F0FCFC40214FF47A75022307AA8DF81D
:103BD0001C10404614F8011F8DF81D10397B00950C
:103BE00002F0ECFCA642EDD1803609F10109B245A4
:103BF0005FFA89F9BFD109B0BDE8F08F33466DE7B0
:103C000072235AE76523F6E5012302E601232AE63B
:103C100072231AE60F23E0E67223D0E60F23B2E602
:103C20006523A2E608237AE676236AE608234AE6B5
:103C300065233AE6636D012004F140084FF00E0A57
:103C40009B004FF0000B4E4F043BD4E9091209686A
:103C5000107401EB03095569002659F8043F033D30
:103C600003971A6802EB850502E0D9F800301A685C
:103C700095420FD35B68AB420CD92B683246514654
:103C80002046FFF7E1F92B685B6903F0030353EA71
:103C90000B032CD0093604353F2EE6D10AF12B0A4E
:103CA000039F0BF1010BBAF1640F3FF496ADA26ACA
:103CB000D1E7344B1B88A4F84030ADE6314B1B886C
:103CC000A4F840303AE60023372270212046FEF760
:103CD000F9FD256BD0E62F22702100232046FEF748
:103CE000F1FD256BD4E90612521A9110C0E6626804
:103CF000B11C05938BB2116810460492C9681F4627
:103D00008847DDE9042330B913681046DB6898471B
:103D1000431E049A9BB293801046136804929B68DA
:103D20009847B842049A07D8136810469B6898478A
:103D30000138049A83B21F462B684046D780124947
:103D40005A6910F03FFF6068012241460368009203
:103D50009B6A1F46039B0CCBB8479BE70021984703
:103D600023E5384609B0BDE8F04F1847002201238B
:103D70001146A84727E500BF5C530590ED0B049062
:103D80004C000024E0530590CC530590012380F8AB
:103D90003530FFF7F9BC00BF002280F83520FFF76F
:103DA000F3BC00BF82694FF0000C016B08B5836A59
:103DB00083F810C052F821306345ACBF03F1FF33E4
:103DC0004FF0FF3342F82130036B52F823100029E3
:103DD00003DABDE80840FFF7D7BCD0E903239B1AFC
:103DE000B1EBA30F4FEAA30C0FD252F821301A689F
:103DF00043621368D3E90021C362914209D013687A
:103E00008362BDE80840FFF7BFBC6246034810F07C
:103E10002FF800220148114610F02AF8E8530590C7
:103E200008B5836A002259691A749142C36A0FDD8A
:103E30000139D3E900239B1AB1EBA30F4FEAA30C7E
:103E400010D252F821308362BDE80840FFF79CBCD5
:103E5000D968D3E9002301399B1AB1EBA30F4FEACC
:103E6000A30CEED36246014810F002F8E853059027
:103E700090F8343010B50446D3B990F8353053B1CA
:103E8000226BA36953F82230002B1ADA2046BDE8D2
:103E90001040FFF779BC026B836953F82230002B86
:103EA000F4DBFFF7BDFF2046BDE81040FFF76CBC18
:103EB00090F83530002BE3D12046BDE81040FFF7E5
:103EC00063BCA36A1A7E1AB91A6801321A60DDE768
:103ED000012A0BD0022A05D0032AD7D1DA68013291
:103EE000DA60D3E79A6801329A60CFE75A68013204
:103EF0005A60CBE7D0E90A31002209691A7491426D
:103F000001DCFFF741BC426A013910B5D2E9004239
:103F1000A2EB040CB1EBAC0F4FEAAC0216D254F892
:103F200021205969D2E90043C2621B1BB1EBA30FE8
:103F30004FEAA30C0DD2136954F82110012B8162B2
:103F4000D8BF4365BDE81040FFF71EBC03480FF023
:103F50008FFF624601480FF08BFF00BFE8530590CA
:103F600090F83530026B10B504464BB9836953F8AD
:103F70002230002B14DA2046BDE81040FFF704BCC5
:103F8000836953F82230002BF5DB826A137E002B05
:103F9000F1D0013B20461376BDE81040FFF7F4BB9B
:103FA000FFF7A8FF2046BDE81040FFF7EDBB00BFBC
:103FB00038B5426A0023D0E90A4109692374D368FD
:103FC000013B994203DBBDE83840FFF7DDBBD2E996
:103FD000005301315B1BB1EBA30F4FEAA30217D2D1
:103FE00055F821306169D3E90054C362641BB1EB19
:103FF000A40F4FEAA4020BD21B6955F82120012B14
:104000008262E0DD013B4365BDE83840FFF7BCBBA1
:1040100001480FF02DFF00BFE853059090F83530B0
:10402000026B10B504464BB9836953F82230002B5C
:1040300015DA2046BDE81040FFF7A6BB836953F8A8
:104040002230002BF5DB826A2046137E022B94BFC0
:1040500001330323BDE810401376FFF795BBFFF74C
:10406000A7FF2046BDE81040FFF78EBB38B5D0E96A
:104070000613056B00225B1A846A9B102274013BB5
:104080009D4202DA6A1C01EB8201C5680369026382
:104090005B1B0968B1EBA30F4FEAA30208D255F8E6
:1040A0002120012342622374BDE83840FFF76CBB36
:1040B00001480FF0DDFE00BFE8530590D0E90A2368
:1040C000002110B5117404465169DA68013A914231
:1040D00011DB90F8362052B9D3E9002393421BD06C
:1040E00013682046A362BDE81040FFF74DBBFFF701
:1040F000BDFFE36AF0E7D3E9000301311B1AB1EB1E
:10410000A30F4FEAA3020CD250F821302046A3623D
:10411000BDE81040FFF738BB0022034811460FF0FE
:10412000A7FE01480FF0A4FEE853059090F8343044
:1041300003B9704770B5044658300FF051FE00B90E
:1041400070BD20460025FFF7B9FFD4E909321B688E
:1041500051695B59D3E900031B1AB1EBA30F4FEA76
:10416000A3023DD250F82130196800290CDB5B68AE
:104170004FEA450CA068002B00EB450208DA50F826
:104180001530002283F864200435102DDDD170BD78
:104190005668D6E90026B61AB1EBA60F4FEAA60E6E
:1041A00021D207EE903A52F82160DFED110AB0EE0D
:1041B000000AF8EEE77A40F80C6077EEE00A10F0BB
:1041C000B3F8DFED0C7A301D20EE270A86ED030AE6
:1041D0000FF0EEFD012386ED080A86F86430D3E780
:1041E00005480FF045FE724603480FF041FE00BF40
:1041F00000008A420000DC43E853059090F8343018
:1042000010B50446D3B990F8353053B1226BA36989
:1042100053F82230002B1ADA2046BDE81040FFF791
:10422000B3BA026B836953F82230002BF4DBFFF73B
:1042300045FF2046BDE81040FFF7A6BA90F835309C
:10424000002BE3D12046BDE81040FFF79DBAA36ADA
:104250001A7E2AB91A6822EAE272013A1A60DBE78A
:10426000012A11D0022A08D0032AD5D1DA68012AFE
:10427000B8BF0122013ADA60CEE79A68012AB8BFD6
:104280000122013A9A60C7E75A6822EAE272013ACB
:104290005A60C1E738B542680D46043104468A4287
:1042A00004D0521A284610F037FB61680B1F2846CD
:1042B000636038BD036B4FF0000C8269816A30B5D2
:1042C000044652F8230081F810C083B0013002EB9D
:1042D000830131D001332363E169881AB3EBA00F66
:1042E0000EDB226A4FF0FF33914201932BD0204620
:1042F00041F8043BE16103B0BDE83040FFF744BA48
:10430000D4E9035052F82310431BB1EBA30F4FEA3B
:10431000A3021ED255F821301A6863621368D3E9EC
:104320000021E362914217D01368A362204603B0D4
:10433000BDE83040FFF728BA04F11800FFF7AAFFE4
:10434000236BA269C8E701AA04F11800FDF7F8FE83
:10435000ECE704480FF08CFD0022024811460FF0F4
:1043600087FD00BFE853059030B5036B00218569D8
:1043700083B0826A0446117405EB830155F823204B
:10438000013245D0013B002B236324DB05EB830383
:104390001968002905DA204603B0BDE83040FFF770
:1043A000F3B9D4E903031B1AB1EBA30F4FEAA3023D
:1043B00043D250F821301A6863621368D3E90021B0
:1043C000E36291423CD013682046A36203B0BDE88B
:1043D0003040FFF7D9B9D4E907034FF0FF329842D4
:1043E000019222D0A84219D050F8042C034643F879
:1043F000042B021FE361AA4215D0521B2946801AE2
:1044000010F08AFAA369019A2A6000222263BFE7AA
:104410001830FFF73FFF236BA569B3E72B4645F83C
:10442000042BE561F1E72B46EDE701AA294604F1EB
:104430001800FDF785FEA369E7E704480FF018FDB3
:104440000022024811460FF013FD00BFE85305900B
:104450002DE9F84FD0E900890F4692466FF0604190
:10446000A9EB0802B1EBA20F54D093100646A7EBBC
:104470000805012B1C4638BF01241C1948D2002C0A
:104480003CD1A346DAF80030002D4BF8053024DC8F
:10449000A9EB07090435B9F1000F5D4413DC4D4465
:1044A000B8F1000F04D1B460C6E900B5BDE8F88FDB
:1044B000B168A1EB080140460FF0C1FCB460C6E949
:1044C00000B5BDE8F88F284639464A464D4410F0FD
:1044D00015FAB8F1000FE6D0EAE7A9EB07092A467A
:1044E00041465846043510F017FAB9F1000F5D4403
:1044F000E9DCB1684D44A1EB0801DCE78C4228BF40
:104500000C46A40020460FF09CFC83460444B9E707
:10451000024CF7E702480FF0A8FC00BFFCFFFF7F4A
:10452000E45205902DE9F84FD0E900890F469246F4
:104530006FF06041A9EB0802B1EBA20F54D09310C9
:104540000646A7EB0805012B1C4638BF01241C19A1
:1045500048D2002C3CD1A346DAF80030002D4BF8AD
:10456000053024DCA9EB07090435B9F1000F5D44DF
:1045700013DC4D44B8F1000F04D1B460C6E900B5B6
:10458000BDE8F88FB168A1EB080140460FF057FC79
:10459000B460C6E900B5BDE8F88F284639464A46FA
:1045A0004D4410F0ABF9B8F1000FE6D0EAE7A9EB03
:1045B00007092A4641465846043510F0ADF9B9F1CD
:1045C000000F5D44E9DCB1684D44A1EB0801DCE774
:1045D0008C4228BF0C46A40020460FF032FC8346D4
:1045E0000444B9E7024CF7E702480FF03EFC00BF75
:1045F000FCFFFF7FE45205902DE9F84FD0E90089D8
:104600000F4692466FF06041A9EB0802B1EBA20F92
:1046100054D093100646A7EB0805012B1C4638BF63
:1046200001241C1948D2002C3CD1A346DAF80030F2
:10463000002D4BF8053024DCA9EB07090435B9F14E
:10464000000F5D4413DC4D44B8F1000F04D1B46099
:10465000C6E900B5BDE8F88FB168A1EB0801404696
:104660000FF0EDFBB460C6E900B5BDE8F88F284651
:1046700039464A464D4410F041F9B8F1000FE6D0F2
:10468000EAE7A9EB07092A4641465846043510F0E7
:1046900043F9B9F1000F5D44E9DCB1684D44A1EB89
:1046A0000801DCE78C4228BF0C46A40020460FF02E
:1046B000C8FB83460444B9E7024CF7E702480FF011
:1046C000D4FB00BFFCFFFF7FE45205902DE9F043CF
:1046D000064683B014200FF0B4FB002301908360E2
:1046E000D6E90412C0E9003391427DD041F8040BB1
:1046F0003161F368CA1A51F8041C9210501E086107
:10470000B169346B41F82400306B51F820109142AC
:1047100072D253F821904FF000080423C6F8249079
:10472000C9F80C3014200FF08CFB0023D9E90112DA
:10473000C0E9003391428360019050D041F8040BEE
:10474000C9F80410726A20234FEA8807002512680E
:1047500052F82840F462C4E9033822E041F8040B1F
:104760006160F46AD4E900135B1AB5EBA30F4FEA5A
:10477000A30240D2D6F82490002251F825304FF001
:10478000300ED9F800104FF0FF3C5D610135C8597B
:104790009A60C068DA60A8421A741A76C3E900CE3B
:1047A0000CDD1C200FF04DFBD4E901130190994260
:1047B000D4D101AA2046FFF71FFFD2E708F1010874
:1047C000D9F80C304345ADDC0B68D3E90010F36237
:1047D000884214D00B68B36203B0BDE8F08301AA2D
:1047E0004846FFF79FFEADE701AA06F10C00FFF770
:1047F0002FFE31697DE7294603480FF039FB11464A
:1048000001480FF035FB00BFE853059038B58269C9
:104810000025016B0446836A1D7452F82130013370
:1048200042F82130016BD0E9035352F821105B1B91
:10483000B1EBA30F13DA9A10914220D255F8213030
:104840001A6863621368D3E90021E362914211D0D0
:1048500013682046A362BDE83840FEF795BFFFF716
:1048600035FF216BA369D4E9035253F82110521B81
:104870009210E1E70022034811460FF0F9FA0148CF
:104880000FF0F6FAE8530590202882B009D8084BBB
:1048900003EB400213F81030507843EA002002B0D6
:1048A000704701230C2043EA002002B0704700BF8C
:1048B00074540590143001F009BA00BF143001F0AF
:1048C00001BA00BF38B500F1140504462DED028B86
:1048D000284601F0E9F9284601F0F4F92846B0EE3F
:1048E000408A01F0DDF9D0ED007AF8EE677A88EEC3
:1048F000277ABDEC028B84ED0E7A38BD10B540F2FC
:1049000003338EB000244FF60B7240F20341ADF832
:10491000083009A80123ADF81020ADF82420224664
:10492000ADF80C100094029907940C94CDE905445D
:10493000CDE90A4401F046FA04A80123224603996E
:10494000009401F03FFA09A801F022FB10B9012000
:104950000EB010BD04A801F01BFBA0420CBF02204A
:1049600020460EB010BD00BF2DE9F04103239AB0E0
:10497000012700240646CDE914373B4BCDE910430F
:1049800040F20453CDE91647ADF84830FFF7B6FFC3
:10499000B842054625D0022845D040F60132334BB7
:1049A0000DF12C081894ADF82C200B981997CDF820
:1049B0004A3000F0E3F810A906F13C0002F030FBA9
:1049C000302003224FF07E5341460D930E93CDE9E4
:1049D0000B02F26B06F1140001F02AF91AB0BDE8DF
:1049E000F0811023214A06A906908DF828300DF198
:1049F0002C081F4BCDF84A2007930294CDE91804E8
:104A0000CDE9080402A801F043FD0823029A03A996
:104A10004046ADF80C508DF80E40049505930B946C
:104A200000F0ECF8C7E700200121104B0DF12C0835
:104A30003A460094CDF84A304FF60B730C94ADF81B
:104A40002C302346CDE9180140F601314046ADF83F
:104A500018100699CDE90D4401F0B4F921464046FD
:104A600001F0A2FAA7E700BF04020404040604034D
:104A70000704010B2DE9F04704462DED028B82B0AF
:104A800000294DD0012140F2011200230091ADF820
:104A900004208DF80630364A0127364B04F104090C
:104AA000354904F12908626040F20272A36040F6C1
:104AB0000663E16004F1250AA4F82520A4F8293052
:104AC000278284F8277084F82B7002F065FE054673
:104AD00002F0C8FC6946064650BB4DB304F13000F5
:104AE0008DF8067002F0E0FD072D3CD104F11405AD
:104AF0002046FFF739FF284601F0E4F82846B0EEDB
:104B0000408A01F0CDF8D0ED007AF8EE677A88EEB1
:104B1000277A84ED0E7A02B0BDEC028BBDE8F087F7
:104B200040F2011300918DF80610ADF80430B2E7A1
:104B300004F1300002F0B8FD072D11D0494620469F
:104B400001F0EEFE0EB9002DD0D1504601F036FA3C
:104B5000404601F033FA04F1120000F079F9C5E79C
:104B6000002EF2D1C2E74946204601F0D9FEBDE74A
:104B70000508050905070506050A060610B584B0EF
:104B800003460124ADF8040003A8ADF80C30ADF8DD
:104B90000E4001F013FA214603A801F0F9FA20466D
:104BA00002F05EFC002103A801F0F2FA204602F0B8
:104BB00057FC214603A801F0EBFA04B010BD00BF7A
:104BC00010B5C2F3002384B00C46017C8DF80D2093
:104BD00043EA4402FA2402238DF80C2003AA00942D
:104BE00001F0ECFC18B10124204604B010BD0446CD
:104BF0000A2002F035FC204604B010BD034670B513
:104C000043F8042B044684B007C983E80700A3795E
:104C100083B91A210B461E22FA2523742046ADF8CB
:104C20000C20022303AA009501F0C8FC28B1012042
:104C300004B070BD1B210B46EDE70A2002F010FC0A
:104C40004FF4B85200950223ADF80C20204603AA79
:104C5000217C01F0B3FC0028E9D10A2002F000FC1D
:104C600041F2027200950223ADF80C20204603AAFF
:104C7000217C01F0A3FC0028D9D10A2002F0F0FB2E
:104C8000042200950223ADF80C20204603AA217CC3
:104C900001F094FC0028CAD10A2002F0E1FB0622B0
:104CA00000950223ADF80C20204603AA217C01F0D8
:104CB00085FC0028BBD10A2002F0D2FB41F2082279
:104CC00000950223ADF80C20204603AA217C01F0B8
:104CD00075FC0028ABD10A20064602F0C1FB009506
:104CE000022303AA217C2046ADF80C6001F066FC8B
:104CF00000289CD1304602F0B3FB009522790C23AA
:104D00002046002A8DF80C3003AA4FF0020314BF8E
:104D1000622142218DF80D10217C01F04FFC00280A
:104D200085D1304602F09CFB2279D4E902310B4355
:104D3000DBB20AB943F0400362790AB143F02003C1
:104D40000E22FA258DF80D302046009502238DF8AD
:104D50000C2003AA217C01F031FC00287FF467AF0E
:104D60000A2002F07DFB102200950223ADF80C20F2
:104D7000204603AA217C01F021FC00287FF457AFD4
:104D80000A2002F06DFB122100950223ADF80C10F1
:104D900003AA217C204601F011FC00287FF447AFD4
:104DA0000A2002F05DFB012209212046FFF708FFDF
:104DB000003818BF01203BE7F0B5102387B0234C23
:104DC000012200250126002702A920460195CDE9F0
:104DD00002234FF48052CDE9046708F067FC642099
:104DE00002F032FF02A94FF480522046CDE9046759
:104DF00002261027CDE9026708F058FC0322102391
:104E000002A92046CDE9022300230422CDE9042390
:104E10004FF4805208F04AFC40F23223042202A9E7
:104E2000019310232046CDE90223019A0123059224
:104E30004FF48052049308F039FC40F606012046F6
:104E400008F054FC284607B0F0BD00BFD809002484
:104E50001C4B00221C494FF0400C30B5054689B070
:104E60000220596007219A601A620124DA620A223C
:104E70004FF4006EDC6006922022CDE90001042090
:104E80000821CDE9020103201021CDE90401082009
:104E90006946C3E904024FF4C072181DC3E906C293
:104EA0004FF48052C3E909E208F0D6FB38B928462E
:104EB000FFF782FF003818BF012009B030BD20463F
:104EC00009B030BDD409002440410052614A00219C
:104ED000D0B513688EB00A91002B40F0B9805E4BBC
:104EE00001214FF683700C2411600221D3F8D420E5
:104EF0000026032742F48052C3F8D420D3F8D420EC
:104F000002F480520092009AD3F8E02042F010029E
:104F1000C3F8E020D3F8E02002F010020192019AD9
:104F2000D3F8E02042F04002C3F8E020D3F8E020BC
:104F300002F040020292029AD3F8E02042F0080206
:104F4000C3F8E020D3F8E02002F008020392039AAD
:104F5000D3F8E02042F48072C3F8E020D3F8E020D8
:104F600002F480720492049AD3F8E02042F08002A6
:104F7000C3F8E020D3F8E02002F080020592059A01
:104F8000D3F8E02042F02002C3F8E020D3F8E0207C
:104F900002F020020692069AD3F8E02042F00402C2
:104FA000C3F8E020D3F8E0300C9403F00403079337
:104FB0000323079A0B93CDE9080108A9274803F0BA
:104FC000E9FE48F23712022308A925480C94CDE9DE
:104FD0000823CDE90A6703F0DDFE4CF203720223D9
:104FE00008A920480C94CDE90823CDE90A6703F00D
:104FF000D1FE40F2FF62022308A91B480C94CDE9C0
:105000000823CDE90A6703F0C5FE4FF60C720223B0
:1050100008A916480C94CDE90823CDE90A6703F0E6
:10502000B9FE4FF63F02022308A911480C94CDE9BE
:105030000823CDE90A6703F0ADFE2022022308A968
:105040000A480C94CDE90A67CDE9082303F0A2FED3
:105050000EB0D0BDD0090024004402580010025800
:1050600000180258000C025800200258001C025878
:10507000001402582DE9F04FDFF8108406460D4663
:10508000144608F118002DED028B89B000AF02F034
:10509000BFF8D8F8183073B3D8F81C30D8F804909B
:1050A000002B43690BBF4FF0080A4FF0100A4FF076
:1050B000020B4FF0040BB9F1000F2AD0A200EA4610
:1050C000012B02F1070222F00702ADEB020D684648
:1050D000ADEB020D694600F03F81022B00F0D68057
:1050E000002B6FD02246C847D5462437BD46BDECBD
:1050F000028BBDE8F08FD8F81C30002BF5D0D8F823
:1051000004904FF0080A4FF0020B4369B9F1000F09
:10511000D4D1FB61D8F80030BB61002BE5D0D54875
:1051200002F0E8F86B46BBF1020F786108EE103A26
:10513000FB6900F083816A465146A2EBC4029546A2
:105140006200EA46B2FBFBF2AAEBC40085460AEB1A
:105150008200EE46F861ADEB010DF8690EEB820CB2
:10516000C7F810C0EC46ADEB010D00EB8201CCF8A6
:105170000400CCF8081001EB82013869E946CCF84C
:105180000C1000EB8201CCF800A001EB8202C9E90F
:1051900000E0C9E90212012B00F06483022B00F049
:1051A0006C82002B00F08081620849466046BB6932
:1051B000984718EE103A24379D46BD46BDEC028B49
:1051C000BDE8F08F002C8DD01A46D8ED0C6A9FED0B
:1051D000B27A8446331D36F922E00CF1080C07EE52
:1051E00090EA33F922E00232F8EEE77A944267EE71
:1051F000877A67EEA67A4CED027A07EE90EAF8EE2F
:10520000E77A67EE877A67EEA67A4CED017AE2D804
:10521000F9612246C847984ED8ED0D6A0020F96919
:105220002B1D9FED9E7A9FED9E6ADFED9E5A22E038
:10523000F4EEC67AF1EE10FAC0F2C88447F6FE72B8
:10524000D1ED017A45F8202066EEA77AF4EEC77A10
:10525000F1EE10FA40F2F080F4EEC67AF1EE10FAB8
:10526000C0F2D58447F6FE7243F8202002300831A0
:1052700084427FF639AFD1ED007A66EEA77AF4EE7C
:10528000C77AF1EE10FAD3D83246D9E7002C3FF4B2
:1052900029AFD8ED0C6A84469FED787A0022331D41
:1052A0008E4656F822100CF1080C07EE901A53F8AF
:1052B00022100232F8EEE77A944267EE877A67EEC0
:1052C000A67A4CED027A07EE901AF8EEE77A67EECE
:1052D000877A67EEA67A4CED017AE2D871462246CB
:1052E000C7F81CE0C847664ED8ED0D6A0020F96982
:1052F0002B1D9FED6A7A9FED6A6ADFF894C120E06A
:10530000F4EEC67AF1EE10FAC0F279843246D1EDAD
:10531000017A45F8202066EEA77AF4EEC77AF1EE1E
:1053200010FA40F28780F4EEC67AF1EE10FAC0F27D
:105330005E84324643F820200230083184427FF6F2
:10534000D3AED1ED007A66EEA77AF4EEC77AF1EE2D
:1053500010FAD5D86246DAE7002C3FF4C3AED8ED98
:105360000C6A86469FED477A4FF0000C331D56F8C5
:105370002C200EF1080E82F40002A2F5000207EEC6
:10538000902A53F82C200CF1020CF8EEE77A82F404
:1053900000026445A2F5000267EE877A67EEA67AFE
:1053A0004EED027A07EE902AF8EEE77A67EE877AFA
:1053B00067EEA67A4EED017AD9D8F9612246C84740
:1053C000314ED8ED0D6A0020F9692B1D9FED337A1F
:1053D0009FED336ADFF8BCC01FE0F4EEC67AF1EE51
:1053E00010FAC0F2FC833246D1ED017A45F8202054
:1053F00066EEA77AF4EEC77AF1EE10FA18D9F4EE59
:10540000C67AF1EE10FAC0F2DA83324643F8202071
:105410000230083184427FF667AED1ED007A66EE45
:10542000A77AF4EEC77AF1EE10FAD6D86246DBE737
:105430006246EBE762467DE7324615E7A100D646B5
:105440006208073121F00701ADEB010DEA46ADEB33
:10545000010D6946ADEB0E0D0AEB8200EC46ADEB9B
:105460000E0D01EB8202F861E946CCE900A0C9E922
:10547000001290E6280A00240280FFFF000000309E
:105480000082FF7F0000003482FF7F000C0A0024AE
:10549000007E00807E0080FF0000003804FF7FBF98
:1054A00004FF7F3F00FEFF46002C00F0C982BBF1E5
:1054B000020FD8F8242000F0FA827969C7F8049026
:1054C00002EB810E5FED0C5A8A00DCF808100EF139
:1054D00004007A611A46DCF80C303B61331DD7F8C2
:1054E00010903D61FD69C7E902CB8C46834636F9D1
:1054F0002210D8ED0C7A06EE101A33F9221006EEBF
:10550000901A3EF92210B8EEC66A07EE101AF8EEAD
:10551000E66A3BF92210B8EEC77A26EE256A66EEF7
:10552000A56A27EE257A26EE276A66EEA76A27EE99
:10553000277A07EE901A51080232F8EEE77A0AEB62
:105540008100944280ED006A05EB810067EEA57A48
:10555000C0ED006A0CEB810009EB810180ED007A5F
:1055600098ED0C7A67EE877AC1ED007ABFD8D7F84C
:1055700004903D69D7E902CB60466208BB694946A1
:105580009847D8F82C307A69D8ED0D6A1A441FED87
:105590003D7A1FED3D6A2B1D904602F1040A5FED36
:1055A0003F5A0022A84ED9E900EC51E0F4EEC67A49
:1055B000F1EE10FAC0F2C78247F6FE7045F82200FD
:1055C0000CEB0100D0ED007A66EEA77AF4EEC77A14
:1055D000F1EE10FA4BD9F4EEC67AF1EE10FAC0F201
:1055E000BA8247F6FE70BBF1020F43F822002BD0BF
:1055F000D9F808000844D0ED007A66EEA77AF4EEF8
:10560000C77AF1EE10FA36D9F4EEC67AF1EE10FA56
:10561000C0F2CD8247F6FE7048F82200D9F80C009F
:105620000144D1ED007A66EEA77AF4EEC77AF1EE86
:1056300010FA1ED9F4EEC67AF1EE10FAC0F2AF827B
:1056400047F6FE714AF82210023294427FF6B1AD5D
:1056500051080EEB81008900D0ED007A66EEA77A42
:10566000F4EEC77AF1EE10FAA0D83046A6E730463D
:10567000B9E73146E6E73046CEE7002C00F0E0819E
:10568000BBF1020FD8F8243000F0E1817A69DCF830
:10569000081003EB820EC7F804909300DFED6B5AFD
:1056A0000EF1040000227B61DCF80C303B61331DFD
:1056B000D7F810903D61FD69C7E902CB8C4683465F
:1056C00056F82210D8ED0C7A07EE101A53F8221073
:1056D000B8EEC76A07EE101A5EF82210F8EEC76A35
:1056E00007EE101A26EE256A5BF82210B8EEC77A8C
:1056F00066EEA56A26EE276A27EE257A66EEA76A89
:1057000027EE277A07EE901A51080232F8EEE77A70
:105710000AEB8100944280ED006A05EB810067EEA0
:10572000A57AC0ED006A0CEB810009EB810180EDE8
:10573000007A98ED0C7A67EE877AC1ED007ABFD8CF
:10574000D7F804903D69D7E902CB60466208BB698F
:1057500049469847D8F82C307A69D8ED0D6A1A4432
:105760009FED3E7A9FED3E6A131D9246DFF8E4C03E
:105770000022FB612B1D364ED9E9008E4EE0F4EE7F
:10578000C67AF1EE10FAC0F2FC81304645F82200EC
:105790000EEB0100D0ED007A66EEA77AF4EEC77A40
:1057A000F1EE10FA49D9F4EEC67AF1EE10FAC0F231
:1057B000EF813046BBF1020F43F822002AD0D9F81E
:1057C00008000844D0ED007A66EEA77AF4EEC77AB6
:1057D000F1EE10FA35D9F4EEC67AF1EE10FAC0F215
:1057E000C98130464AF82200D9F80C000144D1EDB5
:1057F000007A66EEA77AF4EEC77AF1EE10FA1ED9B7
:10580000F4EEC67AF1EE10FAC0F2AD813146F869D5
:1058100040F82210023294427FF6CBAC510808EBDC
:1058200081008900D0ED007A66EEA77AF4EEC77A9F
:10583000F1EE10FAA3D86046A8E76046BAE76146E1
:10584000E5E76046CEE700BF0280FFFF00000030C2
:105850000082FF7F007E00800000003404FF7FBFD5
:1058600004FF7F3F002C00F0EB807A690021D8F81C
:105870002430C7F8109003EB820ED7F81C909300E9
:10588000FD610EF104021FED0C6A7B61331D1546AC
:1058900056F821204808D8ED0C6ABBF1020F82F4BB
:1058A0000002A2F5000207EE902A53F8212082F4AC
:1058B0000002B8EEE77AA2F5000227EE067A07EEBC
:1058C000902A0AEB8002F8EEE77A27EE267A67EE56
:1058D000867A82ED007A09EB80024FEA800067EE5B
:1058E000A67AC2ED007A27D05EF8212082F4000269
:1058F000A2F5000207EE902A55F8212082F400025A
:10590000B8EEE77AA2F5000227EE067A07EE902AB3
:10591000DCF80820F8EEE77A024427EE267A67EEF4
:10592000867A82ED007A98ED0C7ADCF80C2067EE2E
:10593000877A0244C2ED007A02318C42A8D8D7F8A7
:10594000109060466208BB694946FD699847D8F8DF
:105950002C307A69D8ED0D6A1A441FED407A1FED9C
:10596000406A131D9246DFF8C4C20022FB612B1D62
:10597000AB4ED9E9008E4EE0F4EEC67AF1EE10FAA5
:10598000C0F2C580304645F822000EEB0100D0ED94
:10599000007A66EEA77AF4EEC77AF1EE10FA49D9EA
:1059A000F4EEC67AF1EE10FAC0F2BF803046BBF1D9
:1059B000020F43F822002AD0D9F808000844D0ED9D
:1059C000007A66EEA77AF4EEC77AF1EE10FA35D9CE
:1059D000F4EEC67AF1EE10FAC0F2AE8030464AF824
:1059E0002200D9F80C000144D1ED007A66EEA77AC6
:1059F000F4EEC77AF1EE10FA1ED9F4EEC67AF1EEA3
:105A000010FAC0F28B803146F86940F82210023259
:105A100094427FF6CEAB510808EB81008900D0EDAF
:105A2000007A66EEA77AF4EEC77AF1EE10FAA3D800
:105A30006046A8E76046BAE76146E5E76046CEE71C
:105A4000224649466046BB699847FFF7B2BBC7F894
:105A500010B0002298ED0C6A331DDFED726AD7F8A2
:105A60001CB0786956F8221007EE901A53F82210ED
:105A7000B8EEE77A07EE901A51080232F8EEE77AAC
:105A800027EE267A0AEB810E94420BEB810167EE3A
:105A9000A67A27EE067A67EE867A8EED007AC1ED59
:105AA000007ADFD88300D7F810B07B614DE61A4644
:105AB000C7F810B098ED0C6A331DDFED5B6AD7F8BC
:105AC0001CB0786936F9221007EE101A33F922104B
:105AD00007EE901AB8EEC77A51080232F8EEE77A6C
