:02000004900466
:1000000000000220110A04900D0A0490ED72049081
:100010000D0A04900D0A04900D0A049000000000DF
:100020000000000000000000000000000D0A049025
:100030000D0A0490000000000D0A049071720490F3
:100040000D0A04900D0A04900D0A04900D0A049004
:100050000D0A04900D0A04900D0A04900D0A0490F4
:100060000D0A04900D0A04900D0A0490796E049014
:10007000856E04900D0A0490916E04909D6E04901C
:10008000AD070590A56304900D0A04900D0A049035
:100090000D0A04900D0A04900D0A04900D0A0490B4
:1000A0000D0A04900D0A04900D0A04900D0A0490A4
:1000B000D9FB0490E5FB0490F1FB0490D963049014
:1000C0000D0A0490E56304900D0A049049F404902D
:1000D00055F40490E10505900D0605904106059044
:1000E0000D0A04900D0A0490000000000D0A04900F
:1000F0000D0A04900D0A04900D0A04900D0A049054
:100100000D0A04900D0A0490FDFB049061F4049024
:1001100075060590A90605900D0A04900D0A049035
:100120000D0A04900D0A049085F40490B9F404902B
:10013000E10705900D0A04900D0A04900D0A049041
:1001400000000000000000000000000000000000AF
:100150000D0A04900D0A04900D0A0490DD06059026
:10016000F16304900D0A049081720490A5720490CA
:100170000D0A0490C97204900D0A04900D0A0490AF
:100180000D0A04900D0A049011070590450705908B
:100190006DF4049079F404900D0A04900D0A049013
:1001A0000D0A04900D0A04900D0A04900D0A0490A3
:1001B000996B04900D0A04900D0A04900D0A0490A6
:1001C0000D0A04900D0A04900D0A04900D0A049083
:1001D0000D0A04900D0A04900D0A04900D0A049073
:1001E0000D0A04900D0A04900D0A04900D0A049063
:1001F0000D0A04900D0A04900D0A04900D0A049053
:100200000D0A04900D0A04900D0A04900D0A049042
:100210000D0A04900D0A04900D0A04900D0A049032
:100220000D0A04900D0A04900D0A049000000000CD
:100230000D0A04900D0A0490000000000D0A0490BD
:100240000D0A04900D0A04900D0A04900D0A049002
:100250000D0A04900D0A04900D0A04900D0A0490F2
:100260000D0A04900D0A04900D0A04900D0A0490E2
:100270000D0A04900D0A0490790705900000000013
:100280000D0A04900D0A04900D0A0490000000006D
:08029000000000000D0A0490BB
:1002A00010B5054C237833B9044B13B10448AFF3B0
:1002B00000800123237010BDE8030024000000002B
:1002C000A45E059008B5034B1BB103490348AFF387
:1002D000008008BD00000000EC030024A45E05902F
:1002E000034613F8012B002AFBD1181A0138704776
:1002F00001F0FF01102A2BDB10F0070F08D010F8D7
:10030000013B013A8B422DD010F0070F42B3F6D1DA
:10031000F0B441EA012141EA014122F007047FF0F3
:1003200000070023F0E80256083C85EA010586EA4A
:10033000010685FA47F5A3FA87F586FA47F6A5FA86
:1003400087F68EB9EED1F0BC01F0FF0102F0070292
:1003500032B110F8013B013A83EA010313B1F8D13D
:100360000020704701387047002D06BF354603381E
:10037000073815F0010F07D1013015F4807F02BF57
:10038000013015F4C03F0130F0BC0138704700BFA8
:1003900081F0004102E000BF83F0004330B54FEA36
:1003A00041044FEA430594EA050F08BF90EA020FA3
:1003B0001FBF54EA000C55EA020C7FEA645C7FEA36
:1003C000655C00F0E2804FEA5454D4EB5555B8BF59
:1003D0006D420CDD2C4480EA020281EA030382EACA
:1003E000000083EA010180EA020281EA0303362D5C
:1003F00088BF30BD11F0004F4FEA01314FF4801C2F
:100400004CEA113102D0404261EB410113F0004F40
:100410004FEA03334CEA133302D0524263EB4303F7
:1004200094EA050F00F0A780A4F10104D5F1200E95
:100430000DDB02FA0EFC22FA05F2801841F10001F0
:1004400003FA0EF2801843FA05F359410EE0A5F1C4
:1004500020050EF1200E012A03FA0EFC28BF4CF0F5
:10046000020C43FA05F3C01851EBE37101F00045AB
:1004700007D54FF0000EDCF1000C7EEB00006EEBB8
:100480000101B1F5801F1BD3B1F5001F0CD3490842
:100490005FEA30004FEA3C0C04F101044FEA445299
:1004A00012F5800F80F09A80BCF1004F08BF5FEA20
:1004B000500C50F1000041EB045141EA050130BD00
:1004C0005FEA4C0C404141EB0101013C28BFB1F512
:1004D000801FE9D291F0000F04BF01460020B1FA5D
:1004E00081F308BF2033A3F10B03B3F120020CDA30
:1004F0000C3208DD02F1140CC2F10C0201FA0CF00E
:1005000021FA02F10CE002F11402D8BFC2F1200C72
:1005100001FA02F120FA0CFCDCBF41EA0C01904028
:10052000E41AA2BF01EB0451294330BD6FEA040471
:100530001F3C1CDA0C340EDC04F11404C4F120025C
:1005400020FA04F001FA02F340EA030021FA04F36E
:1005500045EA030130BDC4F10C04C4F1200220FAC5
:1005600002F001FA04F340EA0300294630BD21FA03
:1005700004F0294630BD94F0000F83F4801306BFC9
:1005800081F480110134013D4EE77FEA645C18BFBD
:100590007FEA655C29D094EA050F08BF90EA020F54
:1005A00005D054EA000C04BF1946104630BD91EA4C
:1005B000030F1EBF0021002030BD5FEA545C05D14F
:1005C0004000494128BF41F0004130BD14F580048E
:1005D0003CBF01F5801130BD01F0004545F0FE4102
:1005E00041F470014FF0000030BD7FEA645C1ABF37
:1005F000194610467FEA655C1CBF0B46024650EA6E
:10060000013406BF52EA033591EA030F41F4002199
:1006100030BD00BF90F0000F04BF0021704730B51F
:100620004FF4806404F132044FF000054FF00001F4
:1006300050E700BF90F0000F04BF0021704730B5B5
:100640004FF4806404F1320410F0004548BF40428A
:100650004FF000013EE700BF42004FEAE2014FEADF
:1006600031014FEA02701FBF12F07F4393F07F4FBA
:1006700081F06051704732F07F4208BF704793F0BD
:100680007F4F04BF41F40021704730B54FF46074D0
:1006900001F0004521F000411CE700BF50EA0102D3
:1006A00008BF704730B54FF000050AE050EA01027C
:1006B00008BF704730B511F0004502D5404261EBEC
:1006C00041014FF4806404F132045FEA915C3FF42D
:1006D000D8AE4FF003025FEADC0C18BF03325FEACA
:1006E000DC0C18BF033202EBDC02C2F1200300FA7B
:1006F00003FC20FA02F001FA03FE40EA0E0021FAA0
:1007000002F11444BDE600BF53B94AB9002908BF3D
:1007100000281CBF4FF0FF314FF0FF3000F074B9DC
:10072000ADF1080C6DE904CE00F006F8DDF804E048
:10073000DDE9022304B070472DE9F047089D044627
:100740008E46002B4DD18A42944669D9B2FA82F284
:1007500052B101FA02F3C2F1200120FA01F10CFAC0
:1007600002FC41EA030E94404FEA1C48210CBEFBF8
:10077000F8F61FFA8CF708FB16E341EA034306FB81
:1007800007F199420AD91CEB030306F1FF3080F010
:100790001F81994240F21C81023E63445B1AA4B25D
:1007A000B3FBF8F008FB103344EA034400FB07F7FF
:1007B000A7420AD91CEB040400F1FF3380F00A8140
:1007C000A74240F207816444023840EA0640E41B35
:1007D00000261DB1D4400023C5E900433146BDE8E1
:1007E000F0878B4209D9002D00F0EF800026C5E983
:1007F000000130463146BDE8F087B3FA83F6002E9B
:100800004AD18B4202D3824200F2F980841A61EB12
:10081000030301209E46002DE0D0C5E9004EDDE730
:1008200002B9FFDEB2FA82F2002A40F09280A1EB18
:100830000C014FEA1C471FFA8CFE0126200CB1FB6D
:10084000F7F307FB131140EA01410EFB03F0884266
:1008500008D91CEB010103F1FF3802D2884200F2F3
:10086000CB804346091AA4B2B1FBF7F007FB101185
:1008700044EA01440EFB00FEA64508D91CEB040423
:1008800000F1FF3102D2A64500F2BB800846A4EB7E
:100890000E0440EA03409CE7C6F12007B34022FA69
:1008A00007FC4CEA030C20FA07F401FA06F31C4398
:1008B000F9404FEA1C4900FA06F3B1FBF9F8200CA5
:1008C0001FFA8CFE09FB181140EA014108FB0EF0EB
:1008D000884202FA06F20BD91CEB010108F1FF3A3B
:1008E00080F08880884240F28580A8F10208614447
:1008F000091AA4B2B1FBF9F009FB101144EA014155
:1009000000FB0EFE8E4508D91CEB010100F1FF34FF
:100910006CD28E456AD90238614440EA0840A0FB97
:100920000294A1EB0E01A142C846A64656D353D06D
:100930005DB1B3EB080261EB0E0101FA07F722FA91
:1009400006F3F1401F43C5E9007100263146BDE8BA
:10095000F087C2F12003D8400CFA02FC21FA03F31D
:10096000914001434FEA1C471FFA8CFEB3FBF7F09E
:1009700007FB10360B0C43EA064300FB0EF69E42C3
:1009800004FA02F408D91CEB030300F1FF382FD25C
:100990009E422DD9023863449B1B89B2B3FBF7F604
:1009A00007FB163341EA034106FB0EF38B4208D9DD
:1009B0001CEB010106F1FF3816D28B4214D9023E1E
:1009C0006144C91A46EA004638E72E46284605E73C
:1009D0000646E3E61846F8E64B45A9D2B9EB02080D
:1009E00064EB0C0E0138A3E74646EAE7204694E79D
:1009F0004046D1E7D0467BE7023B614432E73046D0
:100A000009E76444023842E7704700BFFEE700BFD1
:100A10000A480B4A904203D0121A0A4913F026FFE3
:100A200009480A4A904203D0121A002113F046FFE7
:100A300013F0E8FE01F0D2FCFEE700BF0000002446
:100A4000E8030024D45E0590E8030024C4340024A5
:100A5000704700BF704700BF704700BF704700BFBE
:100A6000704700BF704700BF40207047802070472C
:100A700049424FF480621030C9B213F01FBF00BF6B
:100A800010B504464FF4826113F091F9204610BD71
:100A900010B5084B04468069236018B1216A091A11
:100AA00013F085F9E06818B16169091A13F07FF94C
:100AB000204610BDAC53059010B50446006818B12F
:100AC000A168091A13F073F9204610BD10B5044649
:100AD000006818B1A168091A13F069F9204610BD21
:100AE000064B1B7823B1064B186803685B6B1847ED
:100AF000034B186803689B69184700BFCC090024A2
:100B000060090024064B1B7823B1064B1868036864
:100B10005B6A1847034B186803689B68184700BF57
:100B2000CC09002460090024064B1B7823B1064B36
:100B3000186803689B6A1847034B18680368DB68EA
:100B4000184700BFCC09002460090024064B1B781D
:100B500023B1064B18680368DB6A1847034B186813
:100B600003681B69184700BFCC09002460090024F2
:100B7000064B1B7823B1064B186803681B6B18479C
:100B8000034B186803685B69184700BFCC09002451
:100B900060090024074B1B783BB1074B074A1868D4
:100BA0000368DB69934204D17047034B18680368FC
:100BB0001B681847CC09002460090024590A0490D6
:100BC000074B1B783BB1074B074A186803681B6A41
:100BD000934204D17047034B186803685B68184759
:100BE000CC090024600900245D0A04902DE9F04F2F
:100BF0004FF0B00885B0054600F1080700F18F06F8
:100C000000F28F494FF47A7B4FF0000A297B0223D0
:100C100003AA3846CDF800B0A6F180048DF80CA0E8
:100C20008DF80D8005F080FC297B022303AA38464D
:100C3000CDF800B08DF80CA08DF80DA005F074FC77
:100C40004FF0100C297B022303AA3846CDF800B0E0
:100C50008DF80CA08DF80DC005F066FC4FF47A708D
:100C600014F801CF4FF0400E297B0223009003AA15
:100C700038468DF80CE08DF80DC005F055FCB442F7
:100C8000ECD104F1800608F101084E455FFA88F8BE
:100C9000B8D105B0BDE8F08F2DE9F04F89B008ACB0
:100CA0009DF84870019104E90C000B78002B00F0CE
:100CB000AB801A469DF818809DF8193006464546C7
:100CC00090460393079B0593A8F12004E3B25E2BA3
:100CD00000F29E8033685E4ADB68934240F09B805E
:100CE0008020B3882B44834200F392803368594AB2
:100CF0009B68934240F092804020F188039A0291D1
:100D00008B18834200F38480002A00F0918002FB5C
:100D100004F46FF00049059BA1441444B6F804B0F4
:100D200003EB4909023BCDF8108003EB44030C466A
:100D30009A4639F802CFA5B304F007034FF0010E2D
:100D4000E20859460EFA03FE0BF110034FFA8EFE2D
:100D500003EBC21200236FEA0E0832440DE07F2934
:100D600006D83F2C04D8107897B14EEA00001070D6
:100D7000013301320131AB4213D00CFA03F000040D
:100D8000EDD47F29F4D83F2CF2D81078002FECD086
:100D9000013308EA000001320131AB4202F8010CD4
:100DA000EBD1D14504F10104C3D1DDF810803268E4
:100DB0000BEB05042649D368A4B28B4234D18020C2
:100DC000844204D3D36822498B423AD17F2493686A
:100DD000204AB480934224D14020029B834206D310
:100DE00033681C4A9B68934225D13F230293029BA0
:100DF000F380019B1878404507D113F8018F0193C8
:100E0000B8F1000F7FF460AF002009B0BDE8F08FAB
:100E10004FF00008EDE73046984762E730469847C4
:100E20006BE730469847D8E7304698473268C7E7BF
:100E3000B6F804B0BBE730469847013883B2029356
:100E4000D5E7304698470138326884B2BFE700BF23
:100E50006D0A0490690A04902DE9F04F85B0A1F164
:100E6000200504AC9DF83870009104E90C00EBB249
:100E70005E2B00F29580036880465D4ADB689DF832
:100E8000084093429DF8096040F094808020B8F8B3
:100E900004302344834200F38380D8F80030554A5D
:100EA0009B68934240F088804020B8F80620931950
:100EB0000192834274DC002E00F0898006FB05F568
:100EC0006FF00040039B964628442E44B8F804A0D7
:100ED00003EB4000023B03EB460B30F8026FBCB360
:100EE0000EF007034FF0010C4FEADE0251460CFAF8
:100EF00003FC0AF110034FFA8CFC03EBC21200232F
:100F00006FEA0C0942440EE07F2907D8BEF13F0F7B
:100F100004D815789FB14CEA0505157001330132EC
:100F200001319C4214D006FA03F52D04ECD47F293C
:100F3000F4D8BEF13F0FF1D81578002FEBD0013374
:100F400009EA0505013201319C4202F8015CEAD14F
:100F500058450EF1010EC0D1D8F800305444244950
:100F6000DA68A4B28A422DD1802084421CD29B68C8
:100F7000204AA8F80440934221D14020019B83429B
:100F800007D3D8F800301B4A9B68934229D13F23EE
:100F90000193DDE90003A8F8063005B0BDE8F08F45
:100FA000002005B0BDE8F08FDA6811498A4211D1FE
:100FB0007F24DCE798476AE74046984775E7404654
:100FC0009847DBE740469047D8F80030CDE7B8F8BF
:100FD00004A0C1E7404690470138D8F8003084B2F9
:100FE000C5E740469847013883B20193D1E700BF77
:100FF0006D0A0490690A04902DE9F04F89B01D46EE
:10100000884606901046129C10F8013B13999DF8F3
:101010005060009233B1002210F8013B0132002BE6
:10102000FAD193B22A78687812FB03F302B21BB2AA
:1010300023EAE373082900F2A681DFE811F0010139
:1010400013011F01330141014F0166016F010900C6
:10105000A18827880F44B4F90610FF1A0029BFB2EF
:10106000C0F2FE806488069804EB6104C280A4EBA1
:1010700052028380078094B24480A64AD8F8003098
:1010800011460192DA688A4240F08B818020B84292
:1010900005D8DA6801998A4240F098817F279E4AF4
:1010A0009B68A8F804709342039240F08781402027
:1010B000A04207D8D8F80030039A9B68934240F0CA
:1010C00080813F24009BA8F8064093F800B06B781D
:1010D0002C7804936B680793BBF1000F00F0AC8091
:1010E000ABF12005EBB25E2B00F22C81D8F800307A
:1010F000019ADB68934240F028818020B8F80430E0
:1011000023449842C0F21E81D8F80030039A9B68AD
:10111000934240F01D814020B8F80610049A0291D5
:101120008B189842C0F20E81002A00F01C8102FB4D
:1011300005F56FF0004E079BAE441544CDF814B092
:1011400003EB4E0E023BB8F804A003EB45030D463B
:101150009B463EF8027FA4B305F007034FF0010C55
:10116000EA0851460CFA03FC0AF110034FFA8CFC12
:1011700003EBC21200236FEA0C0942440DE07F2901
:1011800006D83F2D04D8107896B14CEA00001070B4
:101190000133013201319C4213D007FA03F00004FD
:1011A000EDD47F29F4D83F2DF2D81078002EECD062
:1011B000013309EA0000013201319C4202F8010CBE
:1011C000EBD1F34505F10105C3D1DDF814B0D8F832
:1011D00000200AEB04050199D368ADB28B4240F0C0
:1011E000BD808020854205D3D36801998B4240F0B1
:1011F000C3807F259368039AA8F80450934240F077
:10120000AA804020029B834208D3D8F80030039A7A
:101210009B68934240F0AA803F230293029BA8F868
:101220000630009A13785B4506D112F801BF009290
:10123000BBF1000F7FF454AF069809B0BDE8F08F02
:10124000B4F9041027880029B8BF013107EB610702
:10125000B4F90610A7EB63070029BFB2BFF602AFCF
:101260000131FFE6B4F900700699B4F902400F802D
:10127000BFB24C80A4B28B80CA80FEE6B4F90410E1
:1012800027880029B4F90240B8BF013107EB610794
:1012900006998B80A7EB63034C80A4B29FB2CA80EF
:1012A0000F80EAE6A1882788B4F902400F44069926
:1012B0008B80FB1A4C80A4B29FB2CA800F80DCE600
:1012C000E78861883944B4F90070081A069984B235
:1012D0000F808B80BFB2CA804C80CEE6B4F9041078
:1012E00027880029B8BF013107EB6107A7EB630727
:1012F000B4F802C0BFB2E488069964448B80201A17
:10130000CA800F8084B24C80B7E62788A1880F443A
:10131000FF1AEDE76D0A0490690A0490B4F906100B
:10132000B4F90070002964880698B8BF0131C28002
:1013300004EB610407808380BFB2A4EB520294B235
:1013400044809AE64FF0000B6BE740469847D5E69D
:1013500040469847E0E64046984753E7404698475E
:10136000D8F800203EE7B8F804A030E74046984798
:10137000013883B2029351E7404698470138D8F8C4
:10138000002085B236E7D8F800300024069A1349C9
:10139000148054809480D480DA6801918A4205D008
:1013A000274640469047D8F8003070E69B680C4AC4
:1013B000A8F80440934203923FF484AE4046984715
:1013C00076E640469847013884B27BE6404690472F
:1013D0000138D8F8003087B261E600BF6D0A04908A
:1013E000690A04907F291ED83F2A1CD86BB1D30804
:1013F0004FF0010C02F0070201EBC3130CFA02F2EA
:10140000C1180B7C1A430A747047D3084FF0010CC3
:1014100002F0070201EBC3130CFA02FCC1180A7CAC
:1014200022EA0C020A7470472DE9F04F83B05C1A6F
:101430000C9E002C9DF83490A6EB0208B8BF6442C5
:10144000B8F1000FB8BFC8F100088B428CBF4FF055
:10145000010A4FF0FF3A9642A4EB080C51D84FF026
:10146000FF357F2B019512D83F2E10D8F50806F0D6
:10147000070E012703EBC5150544B9F1000F47D04E
:1014800007FA0EF795F810E047EA0E072F74964218
:1014900001D18B4229D0C8F100077F2914D83F2AF7
:1014A00012D8D50802F0070B4FF0010E01EBC5155D
:1014B0000544B9F1000F1BD00EFA0BFE95F810B0E1
:1014C0004EEA0B0E85F810E0B7EB4C0F4FEA4C05D7
:1014D00002DAACEB080C5144AC4202DD019DA4449D
:1014E0002A449942D9D19642D7D103B0BDE8F08FB2
:1014F0000EFA0BFB95F810E02EEA0B0E85F810E0C3
:10150000E2E701257F2B0195C5D83F2EAED9C2E772
:1015100007FA0EFE2F7C964227EA0E072F74B8D0EA
:10152000B9E700BF000000002DE9F04F2DED068B5C
:1015300083B01F4680460D469DF8503016460193F5
:10154000139B002BC0F22182129A134406EE103A2C
:10155000DDED127AB8EEC66B9FEDCD4BB8EEE77BB2
:101560009FEDCD5B27EE047B26EE046B87EE050B2B
:1015700086EE05ABF7EEC08BB0EE680A12F0ECFC1D
:1015800007EE907AB7EECAABF8EE679AB0EE408AF3
:10159000B0EE680A13F014F860EE698AB0EE4A0AF9
:1015A00012F0DAFCB0EE409AB0EE4A0A13F008F8F6
:1015B00020EE690A29EE888A29EE899A70EE687A07
:1015C000F0EE006A39EE487A67EEA77AE7EE077A1E
:1015D000F4EEE67AF1EE10FA06D5139BB42B40F345
:1015E00096804FF0010901E04FF000090124784294
:1015F0004FF0000C0095E31B214627462246A340EE
:10160000B9F1000F6AD1424206EE90CACCF1000156
:1016100007EE102AB8EEE66A07EE901A06EE900A78
:10162000B8EEC77A139A66EE084AF8EEE77AB42A5B
:1016300027EE284AF8EEE66A67EE885A74EEC43A56
:1016400026EEA85A26EE096A66EE806A67EE897A67
:1016500027EE007AF5EEC03A40F3F280F1EE10FA90
:1016600000F17F8176EE473A74EEC54AF5EEC03A56
:10167000F1EE10FAF5EEC04ACCBF01220022F1EEE5
:1016800010FA00F1778136EE666A35EEC55AB5EE8E
:10169000C06AF1EE10FAB5EEC05ACCBF01210021AC
:1016A000F1EE10FA00F16F8177EEE66AF5EEC06AAE
:1016B000F1EE10FACCBF0127002775EEC45AF5EE03
:1016C000C05AF1EE10FA00F1478177EEC77AF5EED5
:1016D000C07AF1EE10FACCBF01240024002A40F0B9
:1016E0008A80002964D1BFB9C4BB9C4558DB0CF18A
:1016F000010C03EB4C0E1CEB000F0EF1010E00F081
:10170000C08098424FDB734600287FF779AF03B063
:10171000BDEC068BBDE8F08F009DA6EB0C0E00EB38
:10172000050ABAF17F0FDFD8BEF13F0FDCD84FEAD0
:10173000DE0B019D0AEBCB1A002D00F0B1800EF0FC
:10174000070BC2444FF0010E0EFA0BFE9AF810B0D0
:101750004EEA0B0E8AF810E0002CC6D0009DA6EBD6
:101760000C0EA5EB000ABAF17F0FBED8BEF13F0FF9
:10177000BBD84FEADE0B019D0AEBCB1A002D00F01F
:10178000AE800EF0070BC2444FF0010E9C450EFADE
:101790000BFE9AF810B04EEA0B0E8AF810E0A6DAAB
:1017A00098429E46AFDA01300EEB40030133ABE7BF
:1017B000009D0CEB060E00EB050ABAF17F0F92D8E4
:1017C000BEF13F0F8FD84FEADE0B019D0AEBCB1A1B
:1017D000002D73D00EF0070BC2444FF0010E0EFA2D
:1017E0000BFE9AF810B04EEA0B0E8AF810E0002FAC
:1017F0003FF47AAF90E7009D0CEB060EA5EB000AD4
:10180000BAF17F0F3FF66DAFBEF13F0F3FF669AF04
:101810004FEADE0B019D0AEBCB1A002D6DD00EF0C6
:10182000070BC2444FF0010E0EFA0BFE9AF810B0EF
:101830004EEA0B0E8AF810E000293FF454AFB7E7E8
:10184000F1EE10FA7ED44A4674EEC54AF5EEC04A6F
:10185000F1EE10FA6CD4002135EEC55AB5EEC05A3F
:10186000F1EE10FA5AD4002775EEC45AF5EEC05ABC
:10187000F1EE10FA3FF529AF0024002A3FF431AF12
:10188000B9E798428FDB00233BE700BFAFF300804E
:101890007A008BFCFA2109400000000000806640BD
:1018A000C2444FF0010B0EF0070E0BFA0EFE9AF831
:1018B00010B02BEA0E0E8AF810E015E7C2444FF084
:1018C000010B0EF0070E0BFA0EFE9AF810B02BEA81
:1018D0000E0E8AF810E0002F3FF406AF1CE7C2445A
:1018E0004FF0010B0EF0070E0BFA0EFE9AF810B037
:1018F0002BEA0E0E8AF810E0F7E6C2444FF0010B17
:101900000EF0070E0BFA0EFE9AF810B02BEA0E0E30
:101910008AF810E000293FF4E6AE49E777EEE66A80
:10192000F5EEC06AF1EE10FACCBF012700279BE765
:1019300036EE666AB5EEC06AF1EE10FACCBF012150
:10194000002189E776EE473AF5EEC03AF1EE10FA5B
:10195000CCBF0122002277E70124002A3FF4C1AE68
:1019600049E774EEC54A0122F5EEC04AF1EE10FADD
:101970007FF589AE35EEC55A0121B5EEC05AF1EEBC
:1019800010FA7FF591AE012797E6DDE912231344A3
:1019900006EE102A1293139B5B421393D8E500BF07
:1019A0002DE9F04F87B09DF84850109C2E460195C8
:1019B0009DF844509EB399422ED89946A24228D809
:1019C0007F29164694BF0023012308E09CF810806D
:1019D0004EEA080E8CF810E00136B44219D33F2EBF
:1019E000FAD8002BF8D14FEAD60C06F0070E4FF0CC
:1019F000010801EBCC1C08FA0EFE8444002DE5D151
:101A00009CF810B001362BEA0E0AB4428CF810A0F4
:101A1000E5D201318945D1D207B0BDE8F08FA3EB03
:101A20000108B8F1000FB8BFC8F100089942C0F032
:101A30004E817F2B4FF0FF3A94BF002601263F2AAC
:101A4000009694BF002701270297A6B99FB9D60830
:101A500002F0070C012703EBC6160644002D00F028
:101A6000948107FA0CF796F810C047EA0C07377410
:101A7000002602960096994200F0978146469446C9
:101A80008E46BEF17F0F16D8BCF13F0F13D84FEA38
:101A9000DC070CF0070B4FF001090EEBC7170744EA
:101AA000002D00F0398109FA0BF997F810B049EAD6
:101AB0000B0987F81090770018BFD644B84502DDAF
:101AC00046440CF1FF3C7345DBD16245D9D1002679
:101AD0000496A4EB0209009FB9F1000FB8BFC9F149
:101AE00000093F2C94BF00260126A242C9F100083C
:101AF0000396C0F02381002F40F05081002E40F06B
:101B00004D814FF0FF360096E60803EBC6160644FB
:101B1000002D00F01E814FF0010C04F007070CFAB5
:101B200007F796F810C047EA0C07377400260396AB
:101B3000A24200F03D81C44616461F4605927F2F03
:101B400015D83F2E13D84FEAD60E06F0070B4FF0EC
:101B5000010A07EBCE1E8644002D00F0E6800AFA4B
:101B60000BFA9EF810B04AEA0B0A8EF810A0B8EBF8
:101B70004C0F4FEA4C0E02DAACEB090C013FBEF100
:101B8000000F01D0009A1644BB42D8D1B442D6D13E
:101B9000059AA1EB030EBEF1000FB8BFCEF1000E07
:101BA0007F2994BF4FF0000A4FF0010A99428CBF81
:101BB0004FF001094FF0FF39BAF1000F13D1039E26
:101BC0008EB9E60801EBC6160644002D00F0D3805E
:101BD0004FF0010C04F007070CFA07F796F810C055
:101BE00047EA0C073774049E26BB774626467F2BB0
:101BF00014D83F2E12D84FEAD60C06F0070B4FF040
:101C0000010803EBCC1C8444002D73D008FA0BF8B8
:101C10009CF810B048EA0B088CF810805FEA470C7B
:101C200018BF4B44E64501DD7744013E9942DED1C1
:101C3000B442DCD1A2EB040EBEF1000FB8BFCEF16E
:101C4000000EA2428CBF4FF001084FF0FF38CEF1DA
:101C5000000CBAF1000F0ED1029B63B9D30802F059
:101C60000707012601EBC3130344002D7CD0BE40BF
:101C70001F7C3E431E74019B002B7FF4CDAE664655
:101C80000B467F2B12D83F2C10D8E70804F0070A28
:101C90004FF0010903EBC7170744A5B309FA0AF986
:101CA00097F810A049EA0A0987F81090BCEB460F94
:101CB0004FEA460702DAA6EB0E06013B07B14444A1
:101CC0009942DED1A242DCD107B0BDE8F08F3F2AB5
:101CD0004FF0010A94BF002601267F2B029694BF85
:101CE000002701270097002E7FF4C8AE002F3FF495
:101CF000AEAEC3E608FA0BFB9CF8108028EA0B088E
:101D00008CF810808AE709FA0AFA97F8109029EA05
:101D10000A0987F81090C9E709FA0BFB97F81090A9
:101D200029EA0B0987F81090C5E60AFA0BFB9EF822
:101D300010A02AEA0B0A8EF810A018E797BB8EBBFA
:101D400001260096E60803EBC6160644002D7FF434
:101D5000E2AE012704F0070C039507FA0CFC377C70
:101D600027EA0C073774E3E606FA07F71E7C26EA33
:101D700007061E747FE7012704F0070C07FA0CFC26
:101D8000377C27EA0C0737742DE707FA0CFC377C01
:101D9000029527EA0C07009537746CE64FF0FF3682
:101DA0000096C5E601260096C5E60126049690E653
:101DB00001260196EDE600BF2B48C37A063070B5C8
:101DC000002B4BD004F08CF9B0FA80F04009274E7C
:101DD0002749D6E9002308709A423ED000252946BB
:101DE00014E0A37A7F2B2CD16369984705F0EEFAB3
:101DF000962201232061A26123770135D6E90023D1
:101E0000ADB29B1A2946B5EBA30F26D252F821405A
:101E1000204603F05FFF2379002BE2D1237F002BC4
:101E2000EBD005F0D3FA2369A269134498420CD889
:101E30002379002BE1D0A37A802BDED100232377F6
:101E4000DBE7227F002AF7D0EBE76369984705F0CC
:101E5000BDFA0F232061A361CFE770BD04F040F904
:101E6000003818BF0120B2E7C4040024F4040024A1
:101E7000CC0900242DE9F843914688462DED028BCC
:101E8000FFF79AFFB9F1000F28D00026154F16482A
:101E900000259FED168A02F083F93B685C590835EE
:101EA00094F8641004F1300011F028FD201D84ED39
:101EB000180A84ED020A11F079FD202D38EE008A0F
:101EC000EBD1D8E9002302EB860203EB860301364F
:101ED00082ED008AB14583ED008AD8D1BDEC028B3A
:101EE000BDE8F88310090024640900240000000004
:101EF00084B070B584B004464FF47A7609AD85E8B5
:101F00000E009DF8383029460025037104F076FA5A
:101F1000AE2303AA00968DF80D30204621790223C6
:101F20008DF80C5004F000FBD52303AA0096204640
:101F300021798DF80D3002238DF80C5004F0F4FA5D
:101F4000802303AA0096204621798DF80D300223C4
:101F50008DF80C5004F0E8FAA82303AA0096204656
:101F600021798DF80D3002238DF80C5004F0DCFA45
:101F70003F2303AA0096204621798DF80D300223D5
:101F80008DF80C5004F0D0FADA2303AA009620460C
:101F900021798DF80D3002238DF80C5004F0C4FA2D
:101FA000122303AA0096204621798DF80D300223D2
:101FB0008DF80C5004F0B8FAD32303AA00962046FB
:101FC00021798DF80D3002238DF80C5004F0ACFA15
:101FD00003AA00960223217920468DF80C508DF833
:101FE0000D5004F0A1FA402303AA0096204621795F
:101FF0008DF80D3002238DF80C5004F095FAA623CD
:1020000003AA0096204621798DF80D3002238DF821
:102010000C5004F089FAA42303AA009620462179E3
:102020008DF80D3002238DF80C5004F07DFA8D23CD
:1020300003AA0096204621798DF80D3002238DF8F1
:102040000C5004F071FA142303AA0096204621795B
:102050008DF80D3002238DF80C5004F065FAA123A1
:1020600003AA0096204621798DF80D3002238DF8C1
:102070000C5004F059FAC82303AA0096204621798F
:102080008DF80D3002238DF80C5004F04DFA8123A9
:1020900003AA0096204621798DF80D3002238DF891
:1020A0000C5004F041FA8F2303AA009620462179B0
:1020B0008DF80D3002238DF80C5004F035FAD92339
:1020C00003AA0096204621798DF80D3002238DF861
:1020D0000C5004F029FA252303AA00962046217902
:1020E0008DF80D3002238DF80C5004F01DFADB231F
:1020F00003AA0096204621798DF80D3002238DF831
:102100000C5004F011FA342303AA009620462179DA
:102110008DF80D3002238DF80C5004F005FAAF2134
:10212000009603AA02238DF80D10204621798DF820
:102130000C5004F0F9F904B0BDE8704004B07047E9
:102140002DE9F84FD0E900890F4692466FF06041C3
:10215000A9EB0802B1EBA20F54D093100646A7EBEF
:102160000805012B1C4638BF01241C1948D2002C3D
:102170003CD1A346DAF80030002D4BF8053024DCC2
:10218000A9EB07090435B9F1000F5D4413DC4D4498
:10219000B8F1000F04D1B460C6E900B5BDE8F88F0E
:1021A000B168A1EB0801404611F001FEB460C6E938
:1021B00000B5BDE8F88F284639464A464D4412F02E
:1021C00055FBB8F1000FE6D0EAE7A9EB07092A466C
:1021D00041465846043512F057FBB9F1000F5D44F3
:1021E000E9DCB1684D44A1EB0801DCE78C4228BF73
:1021F0000C46A400204611F0DCFD83460444B9E7F8
:10220000024CF7E7024811F0E8FD00BFFCFFFF7F3A
:10221000545205902DE9F84FD0E900890F469246B7
:102220006FF06041A9EB0802B1EBA20F54D09310FC
:102230000646A7EB0805012B1C4638BF01241C19D4
:1022400048D2002C3CD1A346DAF80030002D4BF8E0
:10225000053024DCA9EB07090435B9F1000F5D4412
:1022600013DC4D44B8F1000F04D1B460C6E900B5E9
:10227000BDE8F88FB168A1EB0801404611F097FD69
:10228000B460C6E900B5BDE8F88F284639464A462D
:102290004D4412F0EBFAB8F1000FE6D0EAE7A9EBF3
:1022A00007092A4641465846043512F0EDFAB9F1BD
:1022B000000F5D44E9DCB1684D44A1EB0801DCE7A7
:1022C0008C4228BF0C46A400204611F072FD8346C4
:1022D0000444B9E7024CF7E7024811F07EFD00BF65
:1022E000FCFFFF7F5452059008B5D0E901329342BC
:1022F00004D00A6843F8042B436008BD0A46194617
:10230000FFF788FF08BD00BF2DE9F84FD0E900892D
:102310000F4692466FF06041A9EB0802B1EBA20FA5
:1023200054D093100646A7EB0805012B1C4638BF76
:1023300001241C1948D2002C3CD1A346DAF8003005
:10234000002D4BF8053024DCA9EB07090435B9F161
:10235000000F5D4413DC4D44B8F1000F04D1B460AC
:10236000C6E900B5BDE8F88FB168A1EB08014046A9
:1023700011F01DFDB460C6E900B5BDE8F88F284630
:1023800039464A464D4412F071FAB8F1000FE6D0D2
:10239000EAE7A9EB07092A4641465846043512F0F8
:1023A00073FAB9F1000F5D44E9DCB1684D44A1EB6B
:1023B0000801DCE78C4228BF0C46A400204611F03F
:1023C000F8FC83460444B9E7024CF7E7024811F0F1
:1023D00004FD00BFFCFFFF7F545205902DE9F0473C
:1023E0000021CB480027DFF88C93DFF88CA3C94E7F
:1023F0002DED028B98B002F0F3FA0B2002F0FAF9FF
:1024000003460C200CADADF8343002F0F3F93C2358
:10241000022212ACADF836008DF840308DF8443011
:10242000A0460C97CDE90E270FCD0FC495E8030009
:1024300018AB84E8030013E907008DE8070009F1F1
:10244000080098E80E00FFF753FD0821B04802F09D
:10245000EFF9AF4802F0E8F9DAF80030B0EE408A60
:10246000C6F80490B360B78686F836701297D6E93E
:102470000713994200F0468141F8047BF161002482
:10248000F0EE480AB7EE000AA3483463DFF8EC9296
:10249000A24FA34DC6E90A4411F048FC4FF0864311
:1024A0009FEDA00A9C48B36311F06CFC994802F0C0
:1024B000DDF89848746501F069F9132002F09AF983
:1024C000ADF84800B0EE480A1299ADF81000484641
:1024D00003F0E6FB944B41469448C9F8143089F860
:1024E0001C40CDF84890FFF7FFFE1420DFF89092D3
:1024F00002F080F9ADF84800B0EE480A1299ADF844
:102500001400384603F0CCFB894B414687487B6179
:102510003C771297FFF7E8FE1620864F02F06AF923
:10252000ADF84800B0EE480A1299ADF818002846F8
:1025300003F0B6FB804B41467C486B612C771295CB
:10254000FFF7D2FE15207D4D02F054F9ADF81C00C6
:10255000B0EE480A07997A4803F0A2FB102002F077
:1025600049F9ADF84800B0EE480A1299ADF82000DC
:10257000484603F095FB734B41466C48C9F814304C
:1025800089F81C40CDF84890FFF7AEFE0F20DFF829
:10259000E09102F02FF9ADF84800B0EE480A129928
:1025A000ADF82400384603F07BFB674B41465F489B
:1025B0007B613C771297FFF797FE1220042702F009
:1025C00019F9ADF84800B0EE480A1299ADF82800A4
:1025D000284603F065FB5D4B414654486B612C7700
:1025E0001295FFF781FE5A4D112002F003F9ADF864
:1025F0004800B0EE480A1299ADF82C00284603F0C6
:102600004FFB544B414649486B612C771295FFF7BD
:102610006BFEDAF80030C3F80490C3F80C90C3F8EE
:102620001490C3F81C901C609C601C619C61682025
:10263000002511F0BEFB0023474A03634363C363D5
:10264000C364036543658263026442648264A0F8E4
:102650005C501290D9E90114A1420B464BD043F8CB
:10266000040BC9F80430B7EE007A53F8044C4FF06D
:102670007C5A00239FED390A201DC7EE087AE361DA
:1026800084ED058A04F1300584ED030AC4F808A03E
:10269000C4F810A0C4ED067A11F042FBF0EE407AC7
:1026A000002240F20113B0EE480A0121C4ED087A7D
:1026B00028462271A38511F029F801219FED280AEF
:1026C0002846217111F092F89FED260A0221284632
:1026D00011F08CF89FED220A04212846C4F830A09E
:1026E00011F084F8013FA2D11F4B204908481E6019
:1026F00002F096F8FEE742461D48FFF705FED9F8BE
:102700000430B0E7424606F11800FFF719FDB6E6BF
:102710001409002464090024BC09002424040024B2
:102720008404002489880841950B0490F404002453
:10273000C10B0490A4040024E10A0490D4040024F2
:10274000C40400244D0B0490710B0490050B0490FD
:1027500044040024290B0490000080BF0000C842FC
:10276000CDCCCC3D9A99193F60090024751E049088
:102770005409002400050024100900240404002446
:102780006404002470B52D4800242D4D2D492A469F
:10279000046044610462C46311F004FB2A482B4BBB
:1027A0002A462B498460036011F0FCFA294B2A4821
:1027B0002A462A4903602A4EC0E90344C0E9054479
:1027C000C0E9074411F0EEFA26482A4626498460FB
:1027D000C0E9004411F0E6FA2A463146234811F0D8
:1027E000E1FA2A463146224811F0DCFA2A4621490C
:1027F000214811F0D7FA2A463146204811F0D2FA82
:102800002A4631461E4811F0CDFA2A4631461D4867
:1028100011F0C8FA2A4631461B4811F0C3FA2A467D
:1028200031461A4811F0BEFA19482A4619498460FF
:10283000C0E90044BDE8704011F0B4BA14090024A6
:1028400000000024550A04900005002478520590E9
:10285000650A0490AC53059064090024910A049021
:10286000610A049054090024B90A04900404002465
:1028700024040024510A0490C40400248404002485
:10288000D40400244404002464040024A404002488
:10289000F4040024CD0A049090F83430002283F030
:1028A000010380F8362080F83430704790F83420E7
:1028B00090F8363082F0010283F0010380F8342072
:1028C00080F83630704700BF2DE9F04F054683B0E1
:1028D0000C4617468BB301F1060A02F10609AF4E0A
:1028E0008B46B8460CE0BBF17F0F05D8B8F13F0F1F
:1028F00002D81A7C1143197408F10108C84515DC87
:10290000686808F0070401214FEAD8030268A14073
:102910000BEBC31354690344B442E4D0424608F1BC
:10292000010801235946A047C845E9DD0BF1010B19
:10293000D345D6DD03B0BDE8F08F4068974E0368FD
:10294000D3F81480B04540F02B817F2910D83F2A5E
:102950000ED8D30802F0070201EBC3131844012379
:102960009340027C1343037468680368D3F81480AF
:10297000B04504F1010B40F01E81BBF17F0F10D870
:102980003F2F0ED8FB0807F007020BEBC3131844C8
:1029900001239340027C1343037468680368D3F8EF
:1029A0001480B04507F1010940F012817F2C12D844
:1029B000B9F13F0F0FD84FEAD90309F0070204EB32
:1029C000C313184401239340027C134303746868C3
:1029D0000368D3F81480B04504F1060A40F005817D
:1029E000BAF17F0F10D83F2F0ED8FB0807F007026F
:1029F0000AEBC313184401239340027C134303746E
:102A000068680368D3F81480621DB045019240F0F5
:102A1000F9807F2A10D83F2F0ED8FB0802EBC31392
:102A200007F00702184401239340027C1343037408
:102A300068680368D3F81480B04540F0EE80BAF1BE
:102A40007F0F13D8B9F13F0F10D84FEAD90309F01F
:102A500007090AEBC31318440123027C03FA09F3A4
:102A60001343037468680368D3F81480B04507F112
:102A7000060940F0DF807F2C12D8B9F13F0F0FD844
:102A80004FEAD90309F0070204EBC31318440123EA
:102A90009340027C1343037468680368D3F814807E
:102AA000B04540F0D280BBF17F0F12D8B9F13F0F93
:102AB0000FD84FEAD90309F007020BEBC31B012320
:102AC00058449340027C1343037468680368D3F846
:102AD0001480B04507F1050740F0C3807F2C10D863
:102AE0003F2F0ED8FB0807F0070204EBC3140123A5
:102AF00020449340027C1343037468680368D3F84E
:102B00001480B04540F0B880BAF17F0F12D8B9F107
:102B10003F0F0FD84FEAD90309F007020AEBC3139E
:102B2000184401239340027C1343037468680368CC
:102B3000D3F81480B04540F0AA80019A7F2A13D8B8
:102B4000B9F13F0F10D84FEAD90309F0070902EB9A
:102B5000C31318440123027C03FA09F313430374DB
:102B600068680368D3F81480B04540F09B80BAF1E0
:102B70007F0F3FF6DFAE3F2F3FF6DCAEFB080122B2
:102B800007F007070AEBC31A02FA07F35044027C66
:102B90001343037403B0BDE8F08F00BFE513049046
:102BA000012304F1010BC04768680368D3F814805F
:102BB000B0453FF4E2AE01233A46594607F1010918
:102BC000C04768680368D3F81480B0453FF4EEAEA0
:102BD00001234A46214604F1060AC0476868036893
:102BE000D3F81480B0453FF4FBAE01233A4651467A
:102BF000C0476868621D0368D3F814800192B0452D
:102C00003FF407AF01233A460199C047686803685B
:102C1000D3F81480B0453FF412AF4A460123514621
:102C200007F10609C04768680368D3F81480B04507
:102C30003FF421AF01234A462146C0476868036834
:102C4000D3F81480B0453FF42EAF012359464A46CD
:102C50000537C04768680368D3F81480B0453FF46F
:102C60003DAF012321463A46C04768680368D3F860
:102C70001480B0453FF448AF01234A465146C0474F
:102C800068680368D3F81480B0453FF456AF012359
:102C90004A460199C04768680368D3F81480B04574
:102CA0003FF465AF01233A465146C44603B0BDE840
:102CB000F04F60472DE9F04F1F4683B0D31E1446F6
:102CC0000D468246164688460193012F12D0022FE8
:102CD00041D0032F68D0042F00F09380013C019B6A
:102CE000013508F1FF389C4206F10106EDD103B031
:102CF000BDE8F08FDAF80400DFF8A0910368D3F89C
:102D000014B0CB4540F091807F2D11D83F2E0FD8C5
:102D1000F30805EBC313184406F00703027C07FA17
:102D200003F313430374DAF804000368D3F814B010
:102D3000CB4540F086807F2DD0D83F2CCED8E308FD
:102D400005EBC313184404F0070201239340027CEF
:102D500013430374C2E7DAF80400DFF84091036814
:102D6000D3F814B0CB4576D1B8F17F0F11D83F2EF0
:102D70000FD8F30806F0070208EBC3131844012329
:102D80009340027C13430374DAF804000368D3F819
:102D900014B0CB455AD1B8F17F0F9FD83F2C9DD8A6
:102DA000E30808EBC313CDE7DAF80400DFF8EC9092
:102DB0000368D3F814B0CB455CD17F2D11D83F2EDA
:102DC0000FD8F30806F0070205EBC31318440123DC
:102DD0009340027C13430374DAF804000368D3F8C9
:102DE00014B0CB4541D1B8F17F0F3FF677AF3F2EFE
:102DF0003FF674AFF30806F0070208EBC31318445C
:102E0000A3E7DAF80400DFF894900368D3F814B06D
:102E1000CB4539D17F2DBCD83F2CBAD8E30804F07C
:102E2000070205EBC3131844A9E73B46324629467F
:102E3000D847DAF804000368D3F814B0CB453FF460
:102E40007AAF012322462946D84747E70123224685
:102E50004146D84742E7012332464146D847DAF88F
:102E600004000368D3F814B093E7012332464146C7
:102E7000D84733E7012332462946D847DAF8040019
:102E80000368D3F814B0ACE7012322462946D8479B
:102E9000DAF804000368D3F814B07AE7E513049075
:102EA00038B50C461AB3012A1D4628D0022A22D072
:102EB000032A28D0042A2AD0052A0CBF164B174B08
:102EC0001B880B80092D204608DCFDF709FA2A46ED
:102ED00020441349BDE8384011F02CBEFDF700FA3C
:102EE0002A4620440F49BDE8384011F023BE0E4B5E
:102EF0001868086038BD0D4B1B880B80E2E70C4B4F
:102F00001B880B80DEE70B4B1B880B80DAE70A4B34
:102F10001B880B80D6E700BFC0520590C4520590B5
:102F2000C8520590CC520590AC520590B452059011
:102F3000B0520590B8520590BC52059010B5354C72
:102F40008E4684FB023CD317C3EB6C0303EB4303B5
:102F50004FEA830CA2EB830384FB0C124FEAEC7C58
:102F6000CCEB62020B2B4FD8DFE803F00C12181EDB
:102F7000242A30363C42480670462749BDE81040B6
:102F800011F0D8BD70462549BDE8104011F0D2BD02
:102F900070462349BDE8104011F0CCBD7046214970
:102FA000BDE8104011F0C6BD70461F49BDE8104095
:102FB00011F0C0BD70461D49BDE8104011F0BABD0A
:102FC00070461B49BDE8104011F0B4BD7046194968
:102FD000BDE8104011F0AEBD70461749BDE8104085
:102FE00011F0A8BD70461549BDE8104011F0A2BD12
:102FF00070461349BDE8104011F09CBD7046114960
:10300000BDE8104011F096BD0F4B1868CEF80000D7
:1030100010BD00BFABAAAA2A28530590D052059034
:10302000D8520590E0520590E8520590F052059074
:10303000F8520590005305900853059010530590E1
:103040001853059020530590305305902DE9F04F0B
:1030500015468AB2466887B002F10209984633687D
:1030600004461FFA89F93046DB68AF1C02910392CF
:10307000BFB29847814506D333683046DB6898472E
:1030800001381FFA80F933683046A6F804909B682F
:1030900098478742C0F09982336830469B689847CA
:1030A000013880B2D8F80020F080002A12DBD8F86E
:1030B0000430002B0EDB092A04F1400AD8BF034973
:1030C0005046C8BF024911F035FD0CE03853059059
:1030D000CC520590B14B04F1400A1A889B78A4F8B1
:1030E00040208AF8023060680122DFF8BC92514625
:1030F000036800929E6A99E80C00B047039B6668DB
:1031000003F10D0B326830461FFA8BFBD2689047F3
:10311000834506D332683046D268904701381FFA9B
:1031200080FB32683046A6F804B092689047874228
:10313000C0F03F823268304692689047D8F800303D
:103140000138002B80B2F080C0F23A82D8F8042017
:1031500051462046FFF7F2FE60680122514603689F
:103160000092D3F828B099E80C00D847039ED4F811
:1031700004B01C36DBF800305846B6B2DB6898471E
:10318000864206D3DBF800305846DB6898470138A2
:1031900086B2DBF800305846ABF804609B6898476D
:1031A000874206D3DBF8003058469B6898470138C1
:1031B00087B2D8F80030ABF80670002B04DBD8F8E3
:1031C0000430002B80F20382754B1868CAF80000A7
:1031D000606851464FF0010A066899E80C00CDF886
:1031E00000A0B66AB04798F81030002B00F0DE81DE
:1031F00060686C4F0368029A5E690492BE4240F0B8
:10320000F9817F2A11D83F2D0FD8EB0802EBC313A9
:10321000184405F007030AFA03FA037C4AEA030A92
:1032200080F810A0606803685E69029BBE4203F1EB
:103230000102039240F0EC817F2A0FD83F2D0DD878
:10324000EB0802EBC31305F0070218440123934077
:10325000027C13430374606803685E69BE4205F133
:10326000010940F0E181029A7F2A11D8B9F13F0F9C
:103270000ED84FEAD90302EBC31309F00702184432
:1032800001239340027C13430374606803685E6902
:10329000029BBE4203F1280B40F0D381BBF17F0FAC
:1032A0000FD83F2D0DD8EB0805F007020BEBC31329
:1032B000184401239340027C13430374606803683D
:1032C0005E69029BBE4203F12702059240F0C7816E
:1032D0007F2A0FD83F2D0DD8EB0802EBC31305F062
:1032E0000702184401239340027C1343037460686F
:1032F00003685E69BE4240F0BC81BBF17F0F15D808
:10330000B9F13F0F12D84FEAD90309F007024FF085
:1033100001090BEBC31309FA02F91844037C49EACB
:10332000030980F81090606803685E69BE4205F189
:10333000080940F0AA81029A7F2A11D8B9F13F0FFB
:103340000ED84FEAD90302EBC31309F00702184461
:1033500001239340027C13430374606803685E6931
:10336000BE4240F09C81039A7F2A11D8B9F13F0FE9
:103370000ED84FEAD90302EBC31309F00702184431
:1033800001239340027C13430374606803685E6901
:10339000BE4205F1070A40F08E8107E034530590E4
:1033A000AC520590E51304904C000024029A7F2A49
:1033B00011D8BAF13F0F0ED84FEADA0302EBC3136C
:1033C0000AF00702184401239340027C134303745C
:1033D000606803685E69BE4240F07781BBF17F0F91
:1033E00011D8B9F13F0F0ED84FEAD90309F00702FF
:1033F0000BEBC313184401239340027C1343037463
:10340000606803685E69BE4240F06981059A7F2A60
:1034100011D8B9F13F0F0ED84FEAD90302EBC3130D
:1034200009F00702184401239340027C13430374FC
:10343000606803685E69BE4240F05B81BBF17F0F4C
:1034400012D8BAF13F0F0FD84FEADA030BEBC31BC8
:103450000AF007034FF0010A58440AFA03FA037C02
:103460004AEA030A80F810A094F83530002B00F0E7
:103470009D8098F81130002B40F0B080029A531DC7
:10348000063298460493039260686A1E03685E6978
:10349000BE4240F0618104997F2910D83F2A0ED89E
:1034A000D30802F0070201EBC3131844012303FA07
:1034B00002F2037C1A430274606803685E69BE42CC
:1034C00040F04281039A7F2A0FD83F2D0DD8EB0898
:1034D00002EBC31305F00702184401239340027C5A
:1034E00013430374606803685E69BE4208F1FF38E5
:1034F00040F02281B8F17F0F0FD83F2D0DD8EB0897
:1035000005F0070208EBC313184401239340027C23
:1035100013430374606803685E69BE4205F10902E3
:10352000049940F003817F2910D83F2A0ED8D30890
:10353000012502F0070201EBC31305FA02F2184459
:10354000037C1A430274606803685E69BE4240F0FF
:10355000E580039A7F2A11D8B9F13F0F0ED84FEAC0
:10356000D90302EBC31309F0070218440123934067
:10357000027C13430374606803685E69BE4240F0D6
:10358000C580B8F17F0F11D8B9F13F0F0ED84FEABF
:10359000D903012209F0070908EBC31802FA09F957
:1035A0004044037C49EA030980F8109007B0BDE865
:1035B000F08FD8F800303846002BF080BFF6C6AD4B
:1035C000714B1868CAF80000C6E538466AE5D8E9C4
:1035D000022351462046FFF763FCF9E5012B00F07A
:1035E000C280022B00F0C780032B00F08780DDF83B
:1035F000088049E753462A460299B0476068036845
:103600005E69029BBE4203F1010203923FF414AED5
:1036100001232A46039905F10109B0476068036850
:103620005E69BE423FF41FAE01234A460299B0478D
:10363000606803685E69029BBE4203F1280B3FF499
:103640002DAE01232A465946B047606803685E697B
:10365000029BBE4203F1270205923FF439AE0123DB
:103660002A460599B047606803685E69BE423FF428
:1036700044AE4A460123594605F10809B04760683F
:1036800003685E69BE423FF456AE01234A46029982
:10369000B047606803685E69BE423FF464AE0123D0
:1036A0004A46039905F1070AB047606803685E69F6
:1036B000BE423FF47BAE012352460299B047606898
:1036C00003685E69BE423FF489AE01234A4659460B
:1036D000B047606803685E69BE423FF497AE01235D
:1036E00005994A46B047606803685E69BE423FF488
:1036F000A5AE524659460123B047B5E6029B03F1F9
:1037000023022433904604920393BDE601234A46E4
:103710004146B44607B0BDE8F04F60470123039926
:103720004A46B047606803685E6927E70123B047EF
:10373000606803685E6909E701232A464146B0478D
:10374000606803685E69E8E601232A460399B0478A
:10375000606803685E69C8E601230499B047606841
:1037600003685E69ABE6029B03F1110212339046D7
:103770000492039388E6029B03F11D021E339046D8
:103780000492039380E600BFAC5205902DE9F04F00
:1037900004464068A04A85B003681B69934240F024
:1037A000D5824FF480620021103011F087F894F830
:1037B000363053B16068994B026855699D4240F0BC
:1037C000C882037C43F001030374A26AA36953F81F
:1037D0002230002B80F2248204F14008904F65686B
:1037E0002B682846DB689847652840F2F8816523F6
:1037F000AB8028462B689B689847012800F200821E
:103800002B6828469B689847013883B2854A012176
:10381000EB801068636820641A681846009141467E
:10382000956A97E80C00A84765682B682846DB680E
:103830009847722800F2E2812B682846DB68984797
:10384000013883B2AB8028462B689B6898470128D3
:1038500000F2D2812B6828469B689847013883B2D2
:10386000D4ED0E7A4046EB80FDEEE77A6E4917EE16
:10387000902A11F05FF960680122414603680092C6
:103880009D6A97E80C00A84765682B682846DB68A6
:103890009847652800F2C2812B682846DB68984764
:1038A000013883B2AB8028462B689B68984708286C
:1038B00000F2B2812B6828469B689847013883B292
:1038C000EB800122594B414618681B79206488F827
:1038D00004306068036800929D6A97E80C00A8476E
:1038E00065682B682846DB689847762800F2928145
:1038F0002B682846DB689847013883B2AB8028469E
:103900002B689B689847082800F282812B6828461C
:103910009B689847013883B2A26AEB80A36953F889
:103920002230002BC0F20682E26A40464049013252
:1039300011F000F9606801224146036800929D6A17
:1039400097E80C00A84765682B682846DB6898470D
:10395000652800F25B812B682846DB6898470138B0
:1039600083B2AB8028462B689B6898470F2800F2EB
:103970004B812B6828469B689847013883B22D4AB3
:103980000121EB801068636820641A681846009172
:103990004146956A97E80C00A84765682B68284659
:1039A000DB689847722800F22D812B682846DB6877
:1039B0009847013883B2AB8028462B689B689847AC
:1039C0000F2800F217812B6828469B68984701381A
:1039D00083B2A26AEB80A36953F82230002BC0F2B5
:1039E000AE81636A404610491B68DA6811F0A2F89C
:1039F000606801224146036800929D6A97E80C00C6
:103A0000A847A36A012B17DD002317227021204647
:103A1000FEF75AFFA36A0FE0710A0490E5130490C1
:103A20004C0000248C5305908853059090530590CA
:103A300098530590A0530590002B05DD00231F220D
:103A400070212046FEF740FF0123272270212046E7
:103A5000FEF73AFF00232F22702120461826FEF79A
:103A600033FF00233722702120466FF00109FEF753
:103A70002BFFA36A19EB030541D4D4E906239B1A53
:103A8000B5EBA30F3BDA52F82530002B37DBD4F827
:103A900004A0DAF800305046DB689847722800F23C
:103AA000A780DAF800305046DB689847013883B2C7
:103AB000AAF804305046DAF800309B689847B042C4
:103AC00000F29480DAF8003050469B68984701383D
:103AD00083B2AAF806304046A369A74953F82520C7
:103AE00011F028F8A36A60684146AB4203680CBF36
:103AF0000022012200929D6A97E80C00A847083630
:103B000009F10109B6B2402EB3D102232A227A214B
:103B10002046FFF7CFF801232A226C212046FFF729
:103B2000C9F80323262267212046FFF7C3F80423A0
:103B30002E2267212046FFF7BDF867688F4A3B6851
:103B40001B6B934240F00A8107F1080807F18F06CA
:103B500007F28F4A4FF0B00900244FF47A75022320
:103B600003AA8DF80C4040468DF80D90397B0095E6
:103B700002F0DAFC8DF80C408DF80D400223397B01
:103B800003AA4046009502F0CFFC10238DF80C40AC
:103B900003AA8DF80D304046397B02230095A6F12B
:103BA000800402F0C1FC40214FF47A75022303AA7D
:103BB0008DF80C10404614F8011F8DF80D10397B5C
:103BC000009502F0B1FCA642EDD1803609F1010961
:103BD000B2455FFA89F9BFD105B0BDE8F08F2B6817
:103BE0002846DB689847013883B201E6334670E720
:103BF00072235DE70F23ECE6012331E6722321E611
:103C0000012303E67223D6E60F23B8E66523A8E670
:103C1000082381E6762371E6082351E6652341E611
:103C2000D4E90B16626A52F82120D2E90001091A80
:103C3000B6EBA10F4FEAA10280F09A8050F826203F
:103C40000121002711744FF02B08002508FB07F80D
:103C500008F10E08C5F10302B01A18D4626D636A48
:103C60003A4453F82220D168814210DDD2E9001392
:103C700005EBC5025B1AB0EBA30F4FEAA30672D2A5
:103C800051F8203041462046FFF7E0F9266B013518
:103C9000072DDFD1002F4BD004F1400802254FF053
:103CA0000309374F07E0093509F1FF39ADB2412D5E
:103CB0003FF495AD266BB6EB0906F4D4636A1B6836
:103CC000DB68B342EFDD16F0030BECD1D4F804A0AF
:103CD000DAF800305046DB68984740B9DAF800302F
:103CE0005046DB68984700F1FF3B1FFA8BFBDAF880
:103CF00000305046AAF804B09B689847A84223D8E1
:103D0000DAF8003050469B689847013883B2324653
:103D1000AAF806301B49404610F00CFF60680122EB
:103D20004146036800929E6A97E80C00B047BAE7E4
:103D3000012788E7144B1B88A4F84030FAE5124BA2
:103D40001B88A4F8403053E62B46E0E70021984753
:103D50002DE5002201231146A84736E5384605B077
:103D6000BDE8F04F184701463246084810F038F8D1
:103D70003146064810F034F8CC520590ED0B049013
:103D80004C000024885305909C5305903C530590AB
:103D9000012380F83530FFF7F9BC00BF002280F81E
:103DA0003520FFF7F3BC00BFD0E90B2138B5436ADB
:103DB00053F82230D3E900431B1BB1EBA30F37D2DA
:103DC000826954F821300021856A197452F825302F
:103DD0008B42ACBF03F1FF334FF0FF3342F8253085
:103DE000836A52F82310002903DABDE83840FFF750
:103DF000CDBCD0E903431B1BB1EBA30F4FEAA302D9
:103E00001AD254F82120D0E90B3152F82330426203
:103E1000D3E900431B1BB1EBA30F4FEAA3020BD264
:103E200054F8213001221A74BDE83840FFF7AEBCC7
:103E30009A1003480FF0D4FF01480FF0D1FF00BFE4
:103E40003C530590D0E90B3110B5446A54F8233047
:103E5000D3E900239B1AB1EBA30F0DD252F8213006
:103E6000002291421A74DCBF6368D9680139BDE849
:103E700010400163FFF78ABC4FEAA30C0148624679
:103E80000FF0AEFF3C53059090F8343010B5044667
:103E90006BB990F8353073B9826A836953F8223070
:103EA000002B23DA2046BDE81040FFF76FBC90F8E6
:103EB0003530002BF6D0A26AA36953F82230002BCC
:103EC000F0DB636AD4E90B2153F82230D3E9000315
:103ED0001B1AB1EBA30F4FEAA30220D250F82130F6
:103EE0005A7C52B91A6801321A60DBE7FFF7AAFF61
:103EF0002046BDE81040FFF749BC012A0BD0022A3A
:103F000005D0032ACED1DA680132DA60CAE79A68AE
:103F100001329A60C6E75A6801325A60C2E7014826
:103F20000FF05EFF3C530590C36A426A016B52F882
:103F3000232010B5D2E90042A2EB040CB1EBAC0F88
:103F400010D2012B54F821204FF00001B8BF0123FB
:103F50001174013B012BC362BDE81040D8BF43651B
:103F6000FFF714BC4FEAAC0201480FF039FF00BF65
:103F70003C53059090F83530826A10B504464BB931
:103F8000836953F82230002B22DA2046BDE8104026
:103F9000FFF7FCBB836953F82230002BF5DB436A43
:103FA000D0E90B2153F82230D3E900031B1AB1EBFF
:103FB000A30F4FEAA30212D250F82120537C002B0A
:103FC000E3D0013B20465374BDE81040FFF7DEBB51
:103FD000FFF7AAFF2046BDE81040FFF7D7BB014816
:103FE0000FF0FEFE3C53059038B5D0E90B21456A31
:103FF00055F82230D3E900431B1BB1EBA30F11D2BC
:104000002B6954F821100024013B0C749A42B8BF6C
:10401000531C012BC36201DD013B4365BDE8384001
:10402000FFF7B4BB4FEAA30C014862460FF0D8FE7D
:104030003C53059090F83530826A10B504464BB970
:10404000836953F82230002B23DA2046BDE8104064
:10405000FFF79CBB836953F82230002BF5DB436AE2
:10406000D0E90B2153F82230D3E900031B1AB1EB3E
:10407000A30F4FEAA30213D250F821202046537C0D
:10408000022B94BF01330323BDE810405374FFF7A4
:104090007DBBFFF7A9FF2046BDE81040FFF776BBC8
:1040A00001480FF09DFE00BF3C53059070B5436A78
:1040B000C56A016B53F82530D3E900431B1BB1EBF4
:1040C000A30F2ED254F821300022866A1A74D0E948
:1040D00006431B1B9B10013B9E421EDB8262036951
:1040E000C26824689B1AB4EBA30F4FEAA3061FD241
:1040F00052F8242052F825304262D3E900431B1BBA
:10410000B1EBA30F4FEAA3020FD254F821300122E2
:10411000BDE870401A74FFF739BB721C04EB8204CF
:10412000DCE79A1005480FF05BFE04480FF058FEDC
:104130003246214601480FF053FE00BF3C53059024
:10414000D0E90B2138B5436A53F82220D2E9005355
:104150005B1BB1EBA30F1BD2D368002255F8215093
:104160000446013B2A74994206DA01310163204674
:10417000BDE83840FFF70ABB90F836300263002BE9
:10418000F5D0FFF793FF2046BDE83840FFF7FEBAB1
:104190004FEAA30C014862460FF022FE3C53059003
:1041A00090F8343003B9704770B5044658300FF0BA
:1041B000CFFD00B970BD20460025FFF7C1FF636A3F
:1041C000216B53F82530D3E900031B1AB1EBA30F81
:1041D0004FEAA3023DD250F82130196800290CDBC8
:1041E0005B684FEAC50CA068002B00EBC50208DA3B
:1041F00050F83530002283F864200135042DDED1DB
:1042000070BD5668D6E90026B61AB1EBA60F4FEA84
:10421000A60E21D207EE903A52F82160DFED100A87
:10422000B0EE000AF8EEE77A40F80C6077EEE00AAC
:1042300010F032F8DFED0B7A301D20EE270A86ED04
:10424000030A0FF06DFD012386ED080A86F864303D
:10425000D3E705480FF0C4FD724603480FF0C0FDD8
:1042600000008A420000DC433C53059090F8343053
:1042700010B504466BB990F8353073B9826A83691A
:1042800053F82230002B25DA2046BDE81040FFF716
:104290007DBA90F83530002BF6D0A26AA36953F8A6
:1042A0002230002BF0DB636AD4E90B2153F8223073
:1042B000D3E900031B1AB1EBA30F4FEAA3022AD2E2
:1042C00050F821305A7C62B91A6822EAE272013A47
:1042D0001A60D9E7FFF734FF2046BDE81040FFF72A
:1042E00055BA012A11D0022A08D0032ACCD1DA68A3
:1042F000012AB8BF0122013ADA60C5E79A68012AAB
:10430000B8BF0122013A9A60BEE75A6822EAE27217
:10431000013A5A60B8E701480FF062FD3C5305903E
:1043200038B542680D46043104468A4204D0521A18
:10433000284610F0A9FA61680B1F2846636038BD53
:10434000D0E90B21436A53F8223010B50446D3E973
:1043500000031B1AB1EBA30F40D2A36AA26950F865
:1043600021100020087402EB830152F82300013071
:104370002DD0012BB8BF0123013BA36252F82310BB
:10438000002904DA2046BDE81040FFF7FFB9D4E960
:1043900003031B1AB1EBA30F4FEAA30222D250F87A
:1043A0002120D4E90B3152F823306262D3E90003B3
:1043B0001B1AB1EBA30F4FEAA30213D250F821301E
:1043C000012220461A74BDE81040FFF7DFB904F15E
:1043D0001800FFF7A5FFA36AA269CFE79A10034868
:1043E0000FF0FEFC01480FF0FBFC00BF3C530590B2
:1043F000D0E90B21436A53F8223030B5044683B02C
:10440000D3E900031B1AB1EBA30F54D2A36AA2692C
:1044100050F821100020087402EB830152F82300A9
:10442000013038D00133A362E169881AB3EBA00FE1
:1044300022DA52F82310D4E90350431BB1EBA30F47
:104440004FEAA30234D255F82120D4E90B3152F8B7
:1044500023306262D3E900031B1AB1EBA30F4FEACA
:10446000A30225D250F8213001221A74204603B04D
:10447000BDE83040FFF78AB9226A4FF0FF3391421E
:1044800001930FD0204641F8043BE16103B0BDE841
:104490003040FFF77BB904F11800FFF741FFA36A32
:1044A000A269C1E701AA04F11800FDF749FEDDE7A2
:1044B00003480FF095FC9A1001480FF091FC00BFE3
:1044C0003C5305902DE9F84FD0E900890F469246FC
:1044D0006FF06041A9EB0802B1EBA20F54D093102A
:1044E0000646A7EB0805012B1C4638BF01241C1902
:1044F00048D2002C3CD1A346DAF80030002D4BF80E
:10450000053024DCA9EB07090435B9F1000F5D443F
:1045100013DC4D44B8F1000F04D1B460C6E900B516
:10452000BDE8F88FB168A1EB080140460FF03FFCF1
:10453000B460C6E900B5BDE8F88F284639464A465A
:104540004D4410F093F9B8F1000FE6D0EAE7A9EB7B
:1045500007092A4641465846043510F095F9B9F145
:10456000000F5D44E9DCB1684D44A1EB0801DCE7D4
:104570008C4228BF0C46A40020460FF01AFC83464C
:104580000444B9E7024CF7E702480FF026FC00BFED
:10459000FCFFFF7F545205902DE9F84FD0E90089C8
:1045A0000F4692466FF06041A9EB0802B1EBA20FF3
:1045B00054D093100646A7EB0805012B1C4638BFC4
:1045C00001241C1948D2002C3CD1A346DAF8003053
:1045D000002D4BF8053024DCA9EB07090435B9F1AF
:1045E000000F5D4413DC4D44B8F1000F04D1B460FA
:1045F000C6E900B5BDE8F88FB168A1EB08014046F7
:104600000FF0D5FBB460C6E900B5BDE8F88F2846C9
:1046100039464A464D4410F029F9B8F1000FE6D06A
:10462000EAE7A9EB07092A4641465846043510F047
:104630002BF9B9F1000F5D44E9DCB1684D44A1EB01
:104640000801DCE78C4228BF0C46A40020460FF08E
:10465000B0FB83460444B9E7024CF7E702480FF089
:10466000BCFB00BFFCFFFF7F54520590F0B507462E
:1046700083B018200FF09DFB0190D7E904139942F5
:1046800058D041F8040B3961F86851F8043C0A1A13
:104690009210511E5961BC6ABB6943F82410B96A73
:1046A00053F8211091424DD250F8213004220026B7
:1046B0007B621A6110200FF07CFB0023796A2022B4
:1046C000836004461D46C0E9003341F82600C260FD
:1046D0001DE041F8040B6160786A50F82640D4E987
:1046E00000135B1AB5EBA30F4FEAA30229D251F8CE
:1046F0002530002201354FF0FF3E1A824FF0300C7A
:10470000E168A942C3E900ECC3E902220CDD1420F0
:104710000FF04FFBD4E9011301909942D9D101AABE
:104720002046FFF739FFD7E701360369B342C1DC02
:1047300003B0F0BD01AA07F10C00FFF7C3FE396911
:10474000A2E7294601480FF04BFB00BF3C53059000
:10475000D0E90B2138B5436A53F82230D3E900532E
:104760005B1BB1EBA30F3ED255F8213000218269CB
:1047700004461974816A52F82130013342F821301D
:10478000816AD0E9035352F821105B1BB1EBA30FF0
:104790004FEAA30219DA914222D255F82120D4E936
:1047A0000B3152F823306262D3E900031B1AB1EBDC
:1047B000A30F4FEAA30213D250F821300122204662
:1047C0001A74BDE83840FEF7E1BFFFF74FFFA16A5A
:1047D000A369D4E9035253F82110521B9210DAE76F
:1047E00003480FF0FDFA9A1001480FF0F9FA00BFE4
:1047F0003C530590202882B009D8084B03EB4002B7
:1048000013F81030507843EA002002B070470123BB
:104810000C2043EA002002B0704700BFE45305902B
:10482000143001F009BA00BF143001F001BA00BF22
:1048300038B500F1140504462DED028B284601F031
:10484000E9F9284601F0F4F92846B0EE408A01F073
:10485000DDF9D0ED007AF8EE677A88EE277ABDECC4
:10486000028B84ED0E7A38BD10B540F203338EB062
:1048700000244FF60B7240F20341ADF8083009A84E
:104880000123ADF81020ADF824202246ADF80C101D
:104890000094029907940C94CDE90544CDE90A44AB
:1048A00001F046FA04A8012322460399009401F07E
:1048B0003FFA09A801F022FB10B901200EB010BD8B
:1048C00004A801F01BFBA0420CBF022020460EB042
:1048D00010BD00BF2DE9F04103239AB00127002449
:1048E0000646CDE914373B4BCDE9104340F2045363
:1048F000CDE91647ADF84830FFF7B6FFB842054698
:1049000025D0022845D040F60132334B0DF12C085A
:104910001894ADF82C200B981997CDF84A3000F078
:10492000E3F810A906F13C0002F032FB302003222C
:104930004FF07E5341460D930E93CDE90B02F26B7F
:1049400006F1140001F02AF91AB0BDE8F081102335
:10495000214A06A906908DF828300DF12C081F4B2E
:10496000CDF84A2007930294CDE91804CDE9080454
:1049700002A801F043FD0823029A03A94046ADF8BE
:104980000C508DF80E40049505930B9400F0ECF854
:10499000C7E700200121104B0DF12C083A46009486
:1049A000CDF84A304FF60B730C94ADF82C302346FB
:1049B000CDE9180140F601314046ADF818100699CE
:1049C000CDE90D4401F0B4F92146404601F0A2FAC8
:1049D000A7E700BF04020404040604030704010B54
:1049E0002DE9F04704462DED028B82B000294DD011
:1049F000012140F2011200230091ADF804208DF84E
:104A00000630364A0127364B04F10409354904F1D2
:104A10002908626040F20272A36040F60663E1601A
:104A200004F1250AA4F82520A4F82930278284F867
:104A3000277084F82B7002F067FE054602F0CAFC6E
:104A40006946064650BB4DB304F130008DF8067040
:104A500002F0E2FD072D3CD104F114052046FFF7DA
:104A600039FF284601F0E4F82846B0EE408A01F00C
:104A7000CDF8D0ED007AF8EE677A88EE277A84EDEB
:104A80000E7A02B0BDEC028BBDE8F08740F2011354
:104A900000918DF80610ADF80430B2E704F1300053
:104AA00002F0BAFD072D11D04946204601F0F0FE74
:104AB0000EB9002DD0D1504601F036FA404601F033
:104AC00033FA04F1120000F079F9C5E7002EF2D1B3
:104AD000C2E74946204601F0DBFEBDE705080509AF
:104AE00005070506050A060610B584B0034601242D
:104AF000ADF8040003A8ADF80C30ADF80E4001F09D
:104B000013FA214603A801F0F9FA204602F060FCEE
:104B1000002103A801F0F2FA204602F059FC2146D8
:104B200003A801F0EBFA04B010BD00BF10B5C2F34A
:104B3000002384B00C46017C8DF80D2043EA44022A
:104B4000FA2402238DF80C2003AA009401F0ECFC57
:104B500018B10124204604B010BD04460A2002F01A
:104B600037FC204604B010BD034670B543F8042B53
:104B7000044684B007C983E80700A37983B91A21E2
:104B80000B461E22FA2523742046ADF80C20022382
:104B900003AA009501F0C8FC28B1012004B070BD43
:104BA0001B210B46EDE70A2002F012FC4FF4B8522D
:104BB00000950223ADF80C20204603AA217C01F0C9
:104BC000B3FC0028E9D10A2002F002FC41F2027293
:104BD00000950223ADF80C20204603AA217C01F0A9
:104BE000A3FC0028D9D10A2002F0F2FB0422009590
:104BF0000223ADF80C20204603AA217C01F094FC8E
:104C00000028CAD10A2002F0E3FB06220095022305
:104C1000ADF80C20204603AA217C01F085FC002879
:104C2000BBD10A2002F0D4FB41F2082200950223F6
:104C3000ADF80C20204603AA217C01F075FC002869
:104C4000ABD10A20064602F0C3FB0095022303AA5B
:104C5000217C2046ADF80C6001F066FC00289CD158
:104C6000304602F0B5FB009522790C232046002A3D
:104C70008DF80C3003AA4FF0020314BF62214221C9
:104C80008DF80D10217C01F04FFC002885D13046B5
:104C900002F09EFB2279D4E902310B43DBB20AB960
:104CA00043F0400362790AB143F020030E22FA2553
:104CB0008DF80D302046009502238DF80C2003AAB4
:104CC000217C01F031FC00287FF467AF0A2002F05C
:104CD0007FFB102200950223ADF80C20204603AA8A
:104CE000217C01F021FC00287FF457AF0A2002F05C
:104CF0006FFB122100950223ADF80C1003AA217C52
:104D0000204601F011FC00287FF447AF0A2002F092
:104D10005FFB012209212046FFF708FF003818BF7A
:104D200001203BE7F0B5102387B0234C012200257A
:104D30000126002702A920460195CDE902234FF460
:104D40008052CDE9046708F069FC642002F034FF6A
:104D500002A94FF480522046CDE9046702261027AD
:104D6000CDE9026708F05AFC0322102302A920466D
:104D7000CDE9022300230422CDE904234FF480521D
:104D800008F04CFC40F23223042202A901931023C4
:104D90002046CDE90223019A012305924FF4805267
:104DA000049308F03BFC40F60601204608F056FC50
:104DB000284607B0F0BD00BFD80900241C4B0022D4
:104DC0001C494FF0400C30B5054689B002205960AF
:104DD00007219A601A620124DA620A224FF4006EF7
:104DE000DC6006922022CDE9000104200821CDE9F3
:104DF000020103201021CDE9040108206946C3E91E
:104E000004024FF4C072181DC3E906C24FF4805269
:104E1000C3E909E208F0D8FB38B92846FFF782FF5A
:104E2000003818BF012009B030BD204609B030BDA0
:104E3000D409002440410052614A0021D0B51368D2
:104E40008EB00A91002B40F0B9805E4B01214FF6E5
:104E500083700C2411600221D3F8D420002603278C
:104E600042F48052C3F8D420D3F8D42002F4805204
:104E70000092009AD3F8E02042F01002C3F8E0203C
:104E8000D3F8E02002F010020192019AD3F8E0205A
:104E900042F04002C3F8E020D3F8E02002F04002E4
:104EA0000292029AD3F8E02042F00802C3F8E02010
:104EB000D3F8E02002F008020392039AD3F8E0202E
:104EC00042F48072C3F8E020D3F8E02002F480724C
:104ED0000492049AD3F8E02042F08002C3F8E02064
:104EE000D3F8E02002F080020592059AD3F8E02082
:104EF00042F02002C3F8E020D3F8E02002F02002C4
:104F00000692069AD3F8E02042F00402C3F8E020AB
:104F1000D3F8E0300C9403F0040307930323079ABB
:104F20000B93CDE9080108A9274803F0EBFE48F2EE
:104F30003712022308A925480C94CDE90823CDE9AE
:104F40000A6703F0DFFE4CF20372022308A920482F
:104F50000C94CDE90823CDE90A6703F0D3FE40F2B3
:104F6000FF62022308A91B480C94CDE90823CDE970
:104F70000A6703F0C7FE4FF60C72022308A9164811
:104F80000C94CDE90823CDE90A6703F0BBFE4FF688
:104F90003F02022308A911480C94CDE90823CDE96A
:104FA0000A6703F0AFFE2022022308A90A480C94E6
:104FB000CDE90A67CDE9082303F0A4FE0EB0D0BD09
:104FC000D00900240044025800100258001802586A
:104FD000000C025800200258001C0258001402580D
:104FE0002DE9F04FDFF8108406460D46144608F10F
:104FF00018002DED028B89B000AF02F0C1F8D8F88F
:10500000183073B3D8F81C30D8F80490002B4369DB
:105010000BBF4FF0080A4FF0100A4FF0020B4FF091
:10502000040BB9F1000F2AD0A200EA46012B02F1CD
:10503000070222F00702ADEB020D6846ADEB020D50
:10504000694600F03F81022B00F0D680002B6FD024
:105050002246C847D5462437BD46BDEC028BBDE885
:10506000F08FD8F81C30002BF5D0D8F804904FF012
:10507000080A4FF0020B4369B9F1000FD4D1FB616C
:10508000D8F80030BB61002BE5D0D54802F0EAF833
:105090006B46BBF1020F786108EE103AFB6900F035
:1050A00083816A465146A2EBC40295466200EA46F5
:1050B000B2FBFBF2AAEBC40085460AEB8200EE4687
:1050C000F861ADEB010DF8690EEB820CC7F810C06A
:1050D000EC46ADEB010D00EB8201CCF80400CCF8FE
:1050E000081001EB82013869E946CCF80C1000EB9E
:1050F0008201CCF800A001EB8202C9E900E0C9E915
:105100000212012B00F06483022B00F06C82002B52
:1051100000F08081620849466046BB69984718EEF6
:10512000103A24379D46BD46BDEC028BBDE8F08F9A
:10513000002C8DD01A46D8ED0C6A9FEDB27A8446C9
:10514000331D36F922E00CF1080C07EE90EA33F932
:1051500022E00232F8EEE77A944267EE877A67EE51
:10516000A67A4CED027A07EE90EAF8EEE77A67EE5F
:10517000877A67EEA67A4CED017AE2D8F961224689
:10518000C847984ED8ED0D6A0020F9692B1D9FED98
:105190009E7A9FED9E6ADFED9E5A22E0F4EEC67A7B
:1051A000F1EE10FAC0F2C88447F6FE72D1ED017A32
:1051B00045F8202066EEA77AF4EEC77AF1EE10FAF1
:1051C00040F2F080F4EEC67AF1EE10FAC0F2D58427
:1051D00047F6FE7243F820200230083184427FF601
:1051E00039AFD1ED007A66EEA77AF4EEC77AF1EE28
:1051F00010FAD3D83246D9E7002C3FF429AFD8EDC6
:105200000C6A84469FED787A0022331D8E4656F84C
:1052100022100CF1080C07EE901A53F822100232FB
:10522000F8EEE77A944267EE877A67EEA67A4CED5D
:10523000027A07EE901AF8EEE77A67EE877A67EE61
:10524000A67A4CED017AE2D871462246C7F81CE0F6
:10525000C847664ED8ED0D6A0020F9692B1D9FEDF9
:105260006A7A9FED6A6ADFF894C120E0F4EEC67AAC
:10527000F1EE10FAC0F279843246D1ED017A45F8A8
:10528000202066EEA77AF4EEC77AF1EE10FA40F22B
:105290008780F4EEC67AF1EE10FAC0F25E843246F0
:1052A00043F820200230083184427FF6D3AED1ED9E
:1052B000007A66EEA77AF4EEC77AF1EE10FAD5D846
:1052C0006246DAE7002C3FF4C3AED8ED0C6A86469E
:1052D0009FED477A4FF0000C331D56F82C200EF14D
:1052E000080E82F40002A2F5000207EE902A53F89D
:1052F0002C200CF1020CF8EEE77A82F400026445EF
:10530000A2F5000267EE877A67EEA67A4EED027A82
:1053100007EE902AF8EEE77A67EE877A67EEA67ACC
:105320004EED017AD9D8F9612246C847314ED8ED01
:105330000D6A0020F9692B1D9FED337A9FED336ACA
:10534000DFF8BCC01FE0F4EEC67AF1EE10FAC0F24E
:10535000FC833246D1ED017A45F8202066EEA77A2B
:10536000F4EEC77AF1EE10FA18D9F4EEC67AF1EE3F
:1053700010FAC0F2DA83324643F8202002300831B6
:1053800084427FF667AED1ED007A66EEA77AF4EE3E
:10539000C77AF1EE10FAD6D86246DBE76246EBE751
:1053A00062467DE7324615E7A100D646620807311E
:1053B00021F00701ADEB010DEA46ADEB010D6946A9
:1053C000ADEB0E0D0AEB8200EC46ADEB0E0D01EBE2
:1053D0008202F861E946CCE900A0C9E9001290E632
:1053E000280A00240280FFFF000000300082FF7FB7
:1053F0000000003482FF7F000C0A0024007E008041
:105400007E0080FF0000003804FF7FBF04FF7F3F65
:1054100000FEFF46002C00F0C982BBF1020FD8F855
:10542000242000F0FA827969C7F8049002EB810E1B
:105430005FED0C5A8A00DCF808100EF104007A6166
:105440001A46DCF80C303B61331DD7F810903D61F3
:10545000FD69C7E902CB8C46834636F92210D8EDA8
:105460000C7A06EE101A33F9221006EE901A3EF965
:105470002210B8EEC66A07EE101AF8EEE66A3BF99B
:105480002210B8EEC77A26EE256A66EEA56A27EEE8
:10549000257A26EE276A66EEA76A27EE277A07EEB8
:1054A000901A51080232F8EEE77A0AEB8100944232
:1054B00080ED006A05EB810067EEA57AC0ED006A19
:1054C0000CEB810009EB810180ED007A98ED0C7AFC
:1054D00067EE877AC1ED007ABFD8D7F804903D69AE
:1054E000D7E902CB60466208BB6949469847D8F8BD
:1054F0002C307A69D8ED0D6A1A441FED3D7A1FED04
:105500003D6A2B1D904602F1040A5FED3F5A0022CE
:10551000A84ED9E900EC51E0F4EEC67AF1EE10FAAB
:10552000C0F2C78247F6FE7045F822000CEB01007E
:10553000D0ED007A66EEA77AF4EEC77AF1EE10FAB3
:105540004BD9F4EEC67AF1EE10FAC0F2BA8247F601
:10555000FE70BBF1020F43F822002BD0D9F80800EF
:105560000844D0ED007A66EEA77AF4EEC77AF1EE41
:1055700010FA36D9F4EEC67AF1EE10FAC0F2CD8206
:1055800047F6FE7048F82200D9F80C000144D1ED2E
:10559000007A66EEA77AF4EEC77AF1EE10FA1ED919
:1055A000F4EEC67AF1EE10FAC0F2AF8247F6FE7161
:1055B0004AF82210023294427FF6B1AD51080EEB48
:1055C00081008900D0ED007A66EEA77AF4EEC77A02
:1055D000F1EE10FAA0D83046A6E73046B9E73146DA
:1055E000E6E73046CEE7002C00F0E081BBF1020F89
:1055F000D8F8243000F0E1817A69DCF8081003EB78
:10560000820EC7F804909300DFED6B5A0EF1040090
:1056100000227B61DCF80C303B61331DD7F8109021
:105620003D61FD69C7E902CB8C46834656F82210DE
:10563000D8ED0C7A07EE101A53F82210B8EEC76AAC
:1056400007EE101A5EF82210F8EEC76A07EE101A7D
:1056500026EE256A5BF82210B8EEC77A66EEA56AD8
:1056600026EE276A27EE257A66EEA76A27EE277AC6
:1056700007EE901A51080232F8EEE77A0AEB810041
:10568000944280ED006A05EB810067EEA57AC0EDDB
:10569000006A0CEB810009EB810180ED007A98ED46
:1056A0000C7A67EE877AC1ED007ABFD8D7F80490FC
:1056B0003D69D7E902CB60466208BB694946984715
:1056C000D8F82C307A69D8ED0D6A1A449FED3E7AED
:1056D0009FED3E6A131D9246DFF8E4C00022FB6195
:1056E0002B1D364ED9E9008E4EE0F4EEC67AF1EE6F
:1056F00010FAC0F2FC81304645F822000EEB0100A2
:10570000D0ED007A66EEA77AF4EEC77AF1EE10FAE1
:1057100049D9F4EEC67AF1EE10FAC0F2EF813046C4
:10572000BBF1020F43F822002AD0D9F80800084440
:10573000D0ED007A66EEA77AF4EEC77AF1EE10FAB1
:1057400035D9F4EEC67AF1EE10FAC0F2C9813046CE
:105750004AF82200D9F80C000144D1ED007A66EE37
:10576000A77AF4EEC77AF1EE10FA1ED9F4EEC67AF3
:10577000F1EE10FAC0F2AD813146F86940F822101E
:10578000023294427FF6CBAC510808EB81008900CD
:10579000D0ED007A66EEA77AF4EEC77AF1EE10FA51
:1057A000A3D86046A8E76046BAE76146E5E76046E9
:1057B000CEE700BF0280FFFF000000300082FF7FC5
:1057C000007E00800000003404FF7FBF04FF7F3FA5
:1057D000002C00F0EB807A690021D8F82430C7F85B
:1057E000109003EB820ED7F81C909300FD610EF130
:1057F00004021FED0C6A7B61331D154656F821200B
:105800004808D8ED0C6ABBF1020F82F40002A2F541
:10581000000207EE902A53F8212082F40002B8EE2D
:10582000E77AA2F5000227EE067A07EE902A0AEB45
:105830008002F8EEE77A27EE267A67EE867A82ED26
:10584000007A09EB80024FEA800067EEA67AC2ED8B
:10585000007A27D05EF8212082F40002A2F500022F
:1058600007EE902A55F8212082F40002B8EEE77A7C
:10587000A2F5000227EE067A07EE902ADCF808204F
:10588000F8EEE77A024427EE267A67EE867A82ED12
:10589000007A98ED0C7ADCF80C2067EE877A0244E7
:1058A000C2ED007A02318C42A8D8D7F81090604639
:1058B0006208BB694946FD699847D8F82C307A6977
:1058C000D8ED0D6A1A441FED407A1FED406A131D92
:1058D0009246DFF8C4C20022FB612B1DAB4ED9E912
:1058E000008E4EE0F4EEC67AF1EE10FAC0F2C580FA
:1058F000304645F822000EEB0100D0ED007A66EE4E
:10590000A77AF4EEC77AF1EE10FA49D9F4EEC67A26
:10591000F1EE10FAC0F2BF803046BBF1020F43F83F
:1059200022002AD0D9F808000844D0ED007A66EEAB
:10593000A77AF4EEC77AF1EE10FA35D9F4EEC67A0A
:10594000F1EE10FAC0F2AE8030464AF82200D9F8E3
:105950000C000144D1ED007A66EEA77AF4EEC77A26
:10596000F1EE10FA1ED9F4EEC67AF1EE10FAC0F29A
:105970008B803146F86940F82210023294427FF65B
:10598000CEAB510808EB81008900D0ED007A66EEBD
:10599000A77AF4EEC77AF1EE10FAA3D86046A8E72A
:1059A0006046BAE76146E5E76046CEE722464946EB
:1059B0006046BB699847FFF7B2BBC7F810B000223A
:1059C00098ED0C6A331DDFED726AD7F81CB0786968
:1059D00056F8221007EE901A53F82210B8EEE77A24
:1059E00007EE901A51080232F8EEE77A27EE267A8F
:1059F0000AEB810E94420BEB810167EEA67A27EE4B
:105A0000067A67EE867A8EED007AC1ED007ADFD8ED
:105A10008300D7F810B07B614DE61A46C7F810B086
:105A200098ED0C6A331DDFED5B6AD7F81CB078691E
:105A300036F9221007EE101A33F9221007EE901AE9
:105A4000B8EEC77A51080232F8EEE77A27EE267AE6
:105A50000AEB810E94420BEB810167EEA67A27EEEA
:105A6000067A67EE867A8EED007AC1ED007ADFD88D
:105A70008300D7F810B07B6134E5F0EE675AFEEE94
:105A8000E45A15EE900A34E7F0EE675AFEEEE45A57
:105A900015EE901A6EE7F0EE675AFEEEE45A15EE38
:105AA000900A3AE7F0EE675AFEEEE45A15EE900AD5
:105AB0004BE767EEA57AFDEEE77A17EE900A00B2A3
:105AC00032E567EEA57AFDEEE77A17EE900A00B2AE
:105AD0003FE5F0EE675AFEEEE05A15EE901A4CE6FE
